:100000000C9434000C9451000C9451000C94510049
:100010000C9492010C9451000C9451000C945100DA
:100020000C9451000C9451000C9451000C9451000C
:100030000C9451000C94B2010C9451000C9451009A
:100040000C9451000C9451000C9451000C945100EC
:100050000C9451000C9451000C9451000C945100DC
:100060000C9451000C94510011241FBECFEFD8E026
:10007000DEBFCDBF12E0A0E0B1E0EAE8F7E102C0E8
:1000800005900D92A638B107D9F712E0A6E8B2E0C4
:1000900001C01D92A838B107E1F70E9471030C94CA
:1000A000C30B0C940000982F8091C00085FFFCCFFB
:1000B0009093C60008959093C5008093C400E1EC2E
:1000C000F0E080818860808380818061808386E029
:1000D0008093C200089580E098E40197F1F7809141
:1000E000C00085FFFCCF8EEF8093C6008091C000DA
:1000F00085FFFCCF81E48093C60080E098E40197FF
:10010000F1F78091C00085FFFCCF8EEF8093C60091
:100110008091C00085FFFCCF81E58093C60080E020
:1001200098E40197F1F78091C00085FFFCCF8EEF36
:100130008093C6008091C00085FFFCCF83E580934B
:10014000C6008091C00085FFFCCF86E08093C6008A
:100150000895982F8091C00085FFFCCF8EEF80938B
:10016000C6008091C00085FFFCCF9093C600089523
:100170001F93182F85E40E94A9008091C00085FF7D
:10018000FCCF1093C6001F910895FC0107C0809119
:10019000C00085FFFCCF31969093C60090819923D3
:1001A000B1F708950F931F930E946B0082E00E94A5
:1001B000B80080E091E00E94C50000E018E4C801AA
:1001C0000197F1F782E40E94B80081E191E00E947A
:1001D000C500C8010197F1F784E50E94B80082E2EA
:1001E00091E00E94C5001F910F9108950F931F93F6
:1001F0000E946B0082E00E94B80082E491E00E94BD
:10020000C50000E018E4C8010197F1F782E40E94FC
:10021000B80082E591E00E94C500C8010197F1F79E
:1002200084E10E94B80081E691E00E94C5001F9120
:100230000F9108950F931F930E946B0082E00E941C
:10024000B80082E491E00E94C50000E018E4C80113
:100250000197F1F784E20E94B80086E791E00E94DE
:10026000C500C8010197F1F782E40E94B8008AE84E
:1002700091E00E94C5001F910F9108950F931F9365
:100280000E946B0082E00E94B80082E491E00E942C
:10029000C50000E018E4C8010197F1F784E20E946C
:1002A000B80082EA91E00E94C500C8010197F1F709
:1002B00082E40E94B80087EB91E00E94C500C8016B
:1002C0000197F1F71F910F9108958091C00085FF6C
:1002D000FCCF8EEF8093C6008091C00085FFFCCFDD
:1002E00081E58093C60086E69EE00197F1F70895C8
:1002F00080E00E94B8008EEC91E00E94C50088E882
:1003000093E128EB30E0F9013197F1F70197D9F744
:100310004C9BFECF80E00E94B80088ED91E00E94E7
:10032000C50008951F920F920FB60F9211248F935C
:1003300081E0809386028F910F900FBE0F901F90E7
:1003400018951092800085E0809381008FEF9FEFD9
:100350009093850080938400EFE6F0E080818160D7
:10036000808308951F920F920FB60F9211248F93DE
:100370009F9389B190E0929582958F7089279F70A5
:100380008927982F9170809187029817F1F499230B
:10039000E1F480E098E40197F1F78091C00085FFD7
:1003A000FCCF8EEF8093C6008091C00085FFFCCF0C
:1003B00083E58093C6008091C00085FFFCCF81E07B
:1003C0008093C6008FEF9FEF1BC080E098E40197F9
:1003D000F1F78091C00085FFFCCF8EEF8093C600BF
:1003E0008091C00085FFFCCF83E58093C60080919B
:1003F000C00085FFFCCF86E08093C60088EB9BE0C1
:1004000090938500809384009F918F910F900FBEF1
:100410000F901F901895DF92EF92FF920F931F930A
:10042000DF93CF93CDB7DEB72A970FB6F894DEBF30
:100430000FBECDBF9EE1D92ED9828FEF8A8388E689
:10044000BE016F5F7F4F42E050E020E030E000E00F
:1004500010E00E940E088DE18B838FE08C8383E097
:10046000E82EF12CEC0EFD1E88E6B70142E050E0CC
:1004700020E030E00E940E08DB8287E08C8388E673
:10048000B70142E050E020E030E00E940E088FE12A
:100490008D831E8288E6BE016B5F7F4F42E050E095
:1004A00020E030E00E940E0881E08F8381E488879D
:1004B00088E6BE01695F7F4F42E050E020E030E017
:1004C0000E940E0883E089871A8688E6BE01675F6E
:1004D0007F4F42E050E020E030E00E940E08882389
:1004E00041F080E00E94B80088EE91E00E94C500D3
:1004F00014C080E00E94B80089EF91E00E94C5001E
:1005000080E098E40197F1F780E395E728EB30E08D
:10051000F9013197F1F70197D9F72A960FB6F894B8
:10052000DEBF0FBECDBFCF91DF911F910F91FF9026
:10053000EF90DF9008952F923F924F925F926F92CB
:100540007F928F929F92AF92BF92CF92DF92EF9263
:10055000FF920F931F93DF93CF93CDB7DEB72C9706
:100560000FB6F894DEBF0FBECDBF5C013B014A0160
:10057000CC24DD2459E0452E512C4C0E5D1E4DE05F
:10058000242E42E0342EA8C01092860282E0898395
:100590001A8289E6BE016F5F7F4F41E050E09E0105
:1005A0002E5F3F4F01E010E00E940E088A8180FF1D
:1005B00083C093E09B831C8289E6BE016D5F7F4F01
:1005C00041E050E09E012C5F3F4F0E940E088C815D
:1005D0008F708C83EE24FF2469C0A4E0AD831E825B
:1005E00089E6BE016B5F7F4F41E050E09E012A5FCC
:1005F0003F4F01E010E00E940E082E8127FF53C0FC
:100600002F772E8330E021503040C9016AE070E03E
:100610000E94BB088C01C9016AE070E00E94BB081F
:10062000FB01EE0FFF1FE60FF71FE00FF11FE6586B
:10063000FD4F108100D000D000D0EDB7FEB731964D
:10064000ADB7BEB712965C924E921197338222825A
:10065000812F992787FD9095958384830E94EB08CD
:10066000EDB7FEB736960FB6F894FEBF0FBEEDBFDE
:10067000C2010E94C500133221F4E1E0D301EC93E2
:100680001BC01A3241F4F501EC0DFD1D1082E1E0B2
:10069000D401EC9308C0C114D10429F4D5011C93F2
:1006A00021E0C22ED12C0894E11CF11C8C8190E039
:1006B000E816F9060CF491CFB2E0BF83EFE1E887CA
:1006C00088E6BE01695F7F4F42E050E020E030E005
:1006D00000E010E00E940E08809186028823E1F37A
:1006E00053CF2F923F924F925F926F927F928F9251
:1006F0009F92AF92BF92CF92DF92EF92FF920F93B1
:100700001F93DF93CF93CDB7DEB7AC970FB6F894B6
:10071000DEBF0FBECDBF789480916C00886080935F
:100720006C008091680082608093680054981092F9
:10073000800085E0809381008FEF9FEF909385008C
:100740008093840080916F00816080936F008FE2BE
:1007500090E09093C5008093C4008091C1008860B0
:100760008093C1008091C10080618093C10086E0C8
:100770008093C2000E946B008DE10E94B6080E9427
:100780000B0280E197E228EB30E0F9013197F1F7B5
:100790000197D9F70E94780180E197E228EB30E0D9
:1007A000F9013197F1F70197D9F780E40E94B80079
:1007B00080918602882319F080E192E002C08AE1EC
:1007C00092E00E94C5001F86188A198A1A8AFE01C3
:1007D000739686E0DF011D928A95E9F7DE0159964E
:1007E000E6E6F2E086E001900D928150E1F71F8E7F
:1007F00018A219A21AA2DE019396E0E7F2E086E0C1
:1008000001900D928150E1F719A61AA61BA61CA60D
:1008100061E0A62EB12CCC24DD245BE0452E512CCA
:100820004C0E5D1E4FE0642E712C6C0E7D1EB1E0EF
:10083000AB16B10479F0E1E0AE16B10408F411C1D1
:10084000F2E0AF16B10409F4BBC183E0A816B1040D
:1008500071F7BEC20E94F60084E50E94B80085E2EE
:1008600092E00E94C50031E0A32EB12C992422E031
:10087000822E98EB292E312CF0C08091860288239D
:10088000E1F3109286028F82188689E6BE01695FC5
:100890007F4F41E050E09E01285F3F4F01E010E0B4
:1008A0000E940E08888580FFC9C083E08C831B826C
:1008B00089E6BE016C5F7F4F41E050E09E012D5FF5
:1008C0003F4F0E940E088B818F708B83EE24FF2494
:1008D000AFC094E09A83198289E6BE016E5F7F4FB4
:1008E00041E050E09E012F5F3F4F01E010E00E9489
:1008F0000E08298127FF99C02F77298330E02150E6
:100900003040C9016AE070E00E94BB088C01C90157
:100910006AE070E00E94BB08FB01EE0FFF1FE60FCC
:10092000F71FE00FF11FE658FD4F108100D000D0F7
:1009300000D0EDB7FEB73196ADB7BEB712965C9258
:100940004E9211978DE092E093838283812F9927B5
:1009500087FD9095958384830E94EB08ADB7BEB761
:1009600016960FB6F894BEBF0FBEADBFC2010E946F
:10097000C5001A3209F04EC0C60CD71CF601108211
:10098000CE014996B3010E94E2080097B1F484E5D4
:100990000E94B8008FE292E00E94C50084E50E94A8
:1009A000B8008FE392E00E94C5001F86AA24BB24F2
:1009B000CC24DD249924939441C084E50E94B8009E
:1009C0008FE292E00E94C50084E50E94B80084E4B2
:1009D00092E00E94C50088E893E1F1013197F1F7B8
:1009E0000197D9F784E50E94B80085E292E00E9461
:1009F000C50080E197E2F1013197F1F70197D9F74E
:100A000081E0809386021F8601E0A02EB12CCC24C9
:100A1000DD2414C0F9E0CF16D10438F4F301EC0D55
:100A2000FD1D10830894C11CD11C0894E11CF11C0D
:100A30008B8190E0E816F9060CF44BCF89868FE1A4
:100A40008A8788E6BE01675F7F4F42E050E020E082
:100A500030E000E010E00E940E08992009F40DCF6C
:100A6000E6CE0E94D200992412E0812EB4E02B2E13
:100A7000312C2C0E3D1EA0C0809186028823E1F30C
:100A80001092860289821A8289E6BE016F5F7F4FCB
:100A900041E050E09E012E5F3F4F01E010E00E94D8
:100AA0000E088A8180FF79C083E08B831C8289E6EF
:100AB000BE016D5F7F4F41E050E091010E940E0842
:100AC0008C818F708C83EE24FF2461C094E0988722
:100AD0001F8289E6BE01685F7F4F41E050E09E01C2
:100AE000295F3F4F01E010E00E940E082F8127FF91
:100AF0004BC02F772F8330E021503040C9016AE08E
:100B000070E00E94BB088C01C9016AE070E00E949D
:100B1000BB08FB01EE0FFF1FE60FF71FE00FF11FF1
:100B2000E658FD4F108100D000D000D0EDB7FEB7E1
:100B30003196ADB7BEB712965C924E9211978DE08A
:100B400092E093838283812F992787FD90959583E7
:100B500084830E94EB08ADB7BEB716960FB6F89423
:100B6000BEBF0FBEADBFC2010E94C500133221F44B
:100B700061E0A62EB12C05C01A3231F452E0A52E48
:100B8000B12C9924939409C00894E11CF11C8C8128
:100B900090E0E816F9060CF499CF8986BFE1BA8790
:100BA00088E6BE01675F7F4F42E050E020E030E022
:100BB00000E010E00E940E08992009F45DCF37CEC6
:100BC0000E941A011F8642E0A42EB12CCC24DD2401
:100BD000992432E0832E28EB222E312CF5C080910F
:100BE00086028823E1F3109286028F82188689E6B6
:100BF000BE01695F7F4F41E050E09E01285F3F4F9B
:100C000001E010E00E940E08888580FFCEC083E0DE
:100C10008C831B8289E6BE016C5F7F4F41E050E010
:100C20009E012D5F3F4F0E940E088B818F708B833A
:100C3000EE24FF24B4C0E4E0EA83198289E6BE0111
:100C40006E5F7F4F41E050E09E012F5F3F4F01E01C
:100C500010E00E940E08298127FF9EC02F7729836C
:100C600030E021503040C9016AE070E00E94BB08CA
:100C70008C01C9016AE070E00E94BB08FB01EE0F25
:100C8000FF1FE60FF71FE00FF11FE658FD4F108121
:100C900000D000D000D0EDB7FEB73196ADB7BEB7EB
:100CA00012965C924E9211978DE092E0938382832C
:100CB000812F992787FD9095958384830E94EB0867
:100CC000ADB7BEB716960FB6F894BEBF0FBEADBF98
:100CD000C2010E94C500133221F41F86AA24BB243E
:100CE00020C01A3209F04DC0C60CD71CF601108284
:100CF000CE018396B3010E94E2080097B9F484E51F
:100D00000E94B8008FE292E00E94C50084E50E9434
:100D1000B8008FE392E00E94C5001F8683E0A82EF2
:100D2000B12CCC24DD24992493943FC084E50E9407
:100D3000B8008FE292E00E94C50084E50E94B800EE
:100D400084E492E00E94C50088E893E1F1013197C4
:100D5000F1F70197D9F784E50E94B80085E292E0A7
:100D60000E94C50080E197E2F1013197F1F7019708
:100D7000D9F781E0809386021F8602E0A02EB12C75
:100D8000D0CFF9E0CF16D10438F4F301EC0DFD1DFE
:100D900010830894C11CD11C0894E11CF11C8B81A8
:100DA00090E0E816F9060CF446CF89868FE18A8731
:100DB00088E6BE01675F7F4F42E050E020E030E010
:100DC00000E010E00E940E08992009F408CF2FCD12
:100DD0000E943E0184E50E94B80085E292E00E94F4
:100DE000C5001F86CC24DD24992414E0812EB8EBA5
:100DF0002B2E312C0FC1809186028823E1F31092B3
:100E0000860282E089831A8289E6BE016F5F7F4F86
:100E100041E050E09E012E5F3F4F01E010E00E9454
:100E20000E088A8180FFB9C083E08B831C8289E62B
:100E3000BE016D5F7F4F41E050E09E012C5F3F4F50
:100E40000E940E088C818F708C83EE24FF249FC03B
:100E500088861F8289E6BE01685F7F4F41E050E0CF
:100E60009E01295F3F4F01E010E00E940E082F8194
:100E700027FF8AC02F772F8330E021503040C901EF
:100E80006AE070E00E94BB088C01C9016AE070E072
:100E90000E94BB08FB01EE0FFF1FE60FF71FE00FDC
:100EA000F11FE658FD4F108100D000D000D0EDB703
:100EB000FEB73196ADB7BEB712965C924E921197BF
:100EC0008DE092E093838283812F992787FD90950F
:100ED000958384830E94EB08ADB7BEB716960FB614
:100EE000F894BEBF0FBEADBFC2010E94C500133251
:100EF00089F484E50E94B8008CE492E00E94C50069
:100F000080E197E2F1013197F1F70197D9F7AA242F
:100F1000BB242CC01A3269F5C60CD71CF60110820E
:100F2000DE015996F3018AE001900D928150E1F7BC
:100F30001F8684E50E94B8008FE292E00E94C500FF
:100F400084E50E94B8008CE592E00E94C500CE01C5
:100F500049960E94C50080E197E2F1013197F1F7CF
:100F60000197D9F7AA24BB24CC24DD249924939497
:100F700014C0F9E0CF16D10438F4F301EC0DFD1DD7
:100F800010830894C11CD11C0894E11CF11C8C81B5
:100F900090E0E816F9060CF45BCF83E08D831E82A7
:100FA00089E6BE016B5F7F4F41E050E09E012A5F02
:100FB0003F4F01E010E00E940E088E818F708E83FB
:100FC000EE24FF2412C01F82888689E6BE01685F76
:100FD0007F4F41E050E09E01295F3F4F01E010E06C
:100FE0000E940E080894E11CF11C8E8190E0E81626
:100FF000F9064CF382E089878FE18A8788E6BE0193
:10100000675F7F4F42E050E020E030E000E010E01A
:101010000E940E08992009F4EECE09CCFF920F939E
:101020001F93F82EFB01D901000000000000000012
:10103000000041155105E9F184EA8093BC008091DC
:10104000BC0087FFFCCF9091B900987F983009F0E1
:1010500088C08F2D8E7F8093BB0084E88093BC0076
:101060008091BC0087FFFCCF9091B900987F9831A8
:1010700021F0903209F075C071C024E8808180931E
:10108000BB002093BC008091BC0087FFFCCF9091F7
:10109000B900987F41505040983239F4319641154B
:1010A000510561F791E081E006C0903309F059C025
:1010B00055C090E080E00115110509F44CC088236B
:1010C00011F428E001C020E184EA8093BC00809103
:1010D000BC0087FFFCCF9091B900987F921709F070
:1010E00040C081E0F82AF092BB0084E88093BC0005
:1010F0008091BC0087FFFCCF9091B900987F90341D
:1011000019F0983471F52AC00150104024EC10C039
:101110002093BC008091BC0087FFFCCF9091B90068
:10112000987F015010409035E1F48091BB008D9381
:101130000115110569F784E88093BC008091BC001B
:1011400087FFFCCF9091B900987F983551F480913A
:10115000BB008C9302C0992321F090E084E9809336
:10116000BC00892F1F910F91FF9008951092B90034
:101170008093B800089597FB092E07260AD077FDC3
:1011800004D00CD006D000201AF4709561957F4FE2
:101190000895F6F7909581959F4F0895AA1BBB1B64
:1011A00051E107C0AA1FBB1FA617B70710F0A61B67
:1011B000B70B881F991F5A95A9F780959095BC0188
:1011C000CD010895FB01DC018D9101908019011082
:1011D000D9F3990B0895AEE0B0E0E1EFF8E00C949C
:1011E0009A0B0D891E8986E08C831A8309838FEF01
:1011F0009FE79E838D839E01275E3F4FCE01019620
:101200006F89788DA9010E940F092F813885020FFF
:10121000131FF80110822E96E4E00C94B60BABE09D
:10122000B0E0E5E1F9E00C948C0B3C012B015A0194
:10123000FC0117821682838181FD03C06FEF7FEF6F
:10124000C6C19AE0892E1E010894211C311CF301AD
:101250002381F20123FD859123FF81912F018823B2
:1012600009F4B2C1853239F423FD859123FF8191C0
:101270002F01853229F490E0B3010E94020BE7CFE1
:10128000982FFF24EE249924FFE1FF15D0F09B3224
:1012900069F09C3228F4903259F0933291F40EC0E8
:1012A0009D3249F0903369F441E024C052E0F52AC0
:1012B00084E0F82A28C098E0F92A25C0E0E1FE2A57
:1012C00022C0F7FC29C0892F80538A3070F4F6FEC3
:1012D00005C0989C902C1124980E15C0E89CE02C19
:1012E0001124E80EF0E2FF2A0EC09E3229F4F6FC2B
:1012F0006BC140E4F42A07C09C3619F450E8F52A83
:1013000002C0983649F4F20123FD959123FF919193
:101310002F01992309F0B8CF892F8554833018F015
:101320008052833038F444E050E0A40EB51E5FE3F1
:1013300059830FC0933631F0933779F0933509F024
:1013400056C020C0F5018081898342E050E0A40EA0
:10135000B51E610101E010E012C0F501C080D1802E
:10136000F6FC03C06FEF7FEF02C0692D70E042E032
:1013700050E0A40EB51EC6010E94F70A8C015FE77B
:10138000F52214C0F501C080D180F6FC03C06FEFD8
:101390007FEF02C0692D70E042E050E0A40EB51E60
:1013A000C6010E94EC0A8C0150E8F52AF3FE07C042
:1013B0001AC080E290E0B3010E94020BEA948E2DE5
:1013C00090E008171907A8F30EC0F601F7FC859105
:1013D000F7FE81916F0190E0B3010E94020BE110D2
:1013E000EA94015010400115110579F7EAC09436CE
:1013F00011F0993669F5F7FE08C0F50120813181B9
:101400004281538184E090E00AC0F501808191819E
:101410009C01442737FD4095542F82E090E0A80EB0
:10142000B91E9FE6F92257FF09C0509540953095A7
:1014300021953F4F4F4F5F4FE0E8FE2ACA01B901A7
:10144000A1012AE030E00E942E0BD82ED21840C015
:10145000953729F41F2D1F7E2AE030E01DC01F2D77
:10146000197F9F3661F0903720F4983509F0ACC0B1
:101470000FC0903739F0983709F0A6C004C028E0B3
:1014800030E00AC0106114FD146020E130E004C0B7
:1014900014FD166020E132E017FF08C0F5016081FD
:1014A00071818281938144E050E008C0F501808120
:1014B0009181BC0180E090E042E050E0A40EB51EB6
:1014C000A1010E942E0BD82ED2188FE7F82EF12200
:1014D000F6FE0BC05EEFF522D91438F4F4FE07C017
:1014E000F2FC05C08FEEF82202C01D2D01C0192D9F
:1014F000F4FE0DC0FE01ED0DF11D8081803319F465
:1015000099EEF92208C01F5FF2FE05C003C08F2DBF
:10151000867809F01F5F0F2DF3FC14C0F0FE0FC09A
:101520001E1510F09D2C0BC09D2C9E0C911A1E2D8B
:1015300006C080E290E0B3010E94020B1F5F1E15FF
:10154000C0F304C01E1510F4E11A01C0EE2404FF1C
:101550000FC080E390E0B3010E94020B02FF1DC0A8
:1015600001FD03C088E790E00EC088E590E00BC065
:10157000802F867891F001FF02C08BE201C080E2EB
:10158000F7FC8DE290E0B3010E94020B06C080E3FD
:1015900090E0B3010E94020B9A94D914C0F3DA943C
:1015A000F101ED0DF11D808190E0B3010E94020B6D
:1015B000DD20A9F706C080E290E0B3010E94020B93
:1015C000EA94EE20C1F743CEF30166817781CB0127
:1015D0002B96E2E10C94A80BFC0105906150704041
:1015E0000110D8F7809590958E0F9F1F0895FC01EC
:1015F0006150704001900110D8F7809590958E0F42
:101600009F1F08950F931F93CF93DF938C01EB01DE
:101610008B8181FF1BC082FF0DC02E813F818C8199
:101620009D812817390764F4E881F9810193F983D2
:10163000E88306C0E885F985802F0995892B31F468
:101640008E819F8101969F838E8302C00FEF1FEFD3
:10165000C801DF91CF911F910F910895FA01AA2738
:10166000283051F1203181F1E8946F936E7F6E5FE5
:101670007F4F8F4F9F4FAF4FB1E03ED0B4E03CD093
:10168000670F781F891F9A1FA11D680F791F8A1F76
:10169000911DA11D6A0F711D811D911DA11D20D0DD
:1016A00009F468943F912AE0269F11243019305D97
:1016B0003193DEF6CF010895462F4770405D419388
:1016C000B3E00FD0C9F7F6CF462F4F70405D4A33D5
:1016D00018F0495D31FD4052419302D0A9F7EACF9D
:1016E000B4E0A6959795879577956795BA95C9F7CC
:1016F00000976105710508959B01AC010A2E0694BF
:101700005795479537952795BA95C9F7620F731F77
:10171000841F951FA01D08952F923F924F925F92B4
:101720006F927F928F929F92AF92BF92CF92DF92F1
:10173000EF92FF920F931F93CF93DF93CDB7DEB756
:10174000CA1BDB0B0FB6F894DEBF0FBECDBF0994EA
:101750002A88398848885F846E847D848C849B8441
:10176000AA84B984C884DF80EE80FD800C811B814F
:10177000AA81B981CE0FD11D0FB6F894DEBF0FBE7E
:0A178000CDBFED010895F894FFCFEE
:10178A00506F726368202050726F746563746F7251
:10179A00002A2A2A20554E4C4F434B4544202A2AD8
:1017AA002A0020205052455353202320464F5220CE
:1017BA004C4F434B2C202A20544F2052455345541A
:1017CA002000506F7263682050726F746563746F83
:1017DA0072002A2A2A204C4F434B4544202A2A2A9F
:1017EA0000434F444520414E44202A20544F20555F
:1017FA004E4C4F434B002A494E505554204D4153AD
:10180A0054455220434F44452A00434F4445202B18
:10181A00202A204F52202320544F205245545552FB
:10182A004E0020494E505554204E455720434F44B0
:10183A0045202B202A2000202320544F2043414EAC
:10184A0043454C4C20544F205245534554004E6F4B
:10185A00204D6F74696F6E004D6F74696F6E20440E
:10186A0065746563746564004B65797061642049C9
:10187A006E6974204661696C004B657970616420F9
:10188A00496E697420537563636573730025630039
:10189A00666C6167205452554500666C6167204644
:1018AA00414C534500507265737365643A200020B9
:1018BA00202020202020202020202020202000500E
:1018CA00415353004E4F2050415353005245534504
:1018DA00542043414E43454C4C4544004E45572005
:1018EA00434F44453A00313233343500000000009A
:1018FA0035343332310000000000313233343536AA
:06190A003738392A3023B2
:00000001FF
