:100000000C9434000C9451000C9451000C94510049
:100010000C946B010C9451000C9451000C94510001
:100020000C9451000C9451000C9451000C9451000C
:100030000C9451000C948B010C9451000C945100C1
:100040000C9451000C9451000C9451000C945100EC
:100050000C9451000C9451000C9451000C945100DC
:100060000C9451000C94510011241FBECFEFD8E026
:10007000DEBFCDBF12E0A0E0B1E0EAE0F5E102C0F2
:1000800005900D92A634B107D9F712E0A6E4B2E0CC
:1000900001C01D92A834B107E1F70E9474020C94CC
:1000A000830A0C940000982F8091C00085FFFCCF3C
:1000B0009093C60008959093C5008093C400E1EC2E
:1000C000F0E080818860808380818061808386E029
:1000D0008093C200089580E098E40197F1F7809141
:1000E000C00085FFFCCF8EEF8093C6008091C000DA
:1000F00085FFFCCF81E48093C60080E098E40197FF
:10010000F1F78091C00085FFFCCF8EEF8093C60091
:100110008091C00085FFFCCF81E58093C60080E020
:1001200098E40197F1F78091C00085FFFCCF8EEF36
:100130008093C6008091C00085FFFCCF83E580934B
:10014000C6008091C00085FFFCCF86E08093C6008A
:100150000895982F8091C00085FFFCCF8EEF80938B
:10016000C6008091C00085FFFCCF9093C600089523
:100170001F93182F85E40E94A9008091C00085FF7D
:10018000FCCF1093C6001F910895FC0107C0809119
:10019000C00085FFFCCF31969093C60090819923D3
:1001A000B1F708950F931F930E946B0082E00E94A5
:1001B000B80080E091E00E94C50000E018E4C801AA
:1001C0000197F1F782E40E94B80081E191E00E947A
:1001D000C500C8010197F1F784E50E94B80082E2EA
:1001E00091E00E94C5001F910F9108950F931F93F6
:1001F0000E946B0082E00E94B80085E391E00E94BB
:10020000C50000E018E4C8010197F1F782E40E94FC
:10021000B80085E491E00E94C500C8010197F1F79C
:1002200084E10E94B80084E591E00E94C5001F911E
:100230000F9108950F931F930E946B0082E00E941C
:10024000B80085E391E00E94C50000E018E4C80111
:100250000197F1F782E40E94B80089E691E00E94DC
:10026000C500C8010197F1F784E50E94B80086E84F
:1002700091E00E94C5001F910F9108958091C000E8
:1002800085FFFCCF8EEF8093C6008091C00085FF74
:10029000FCCF81E58093C60086E69EE00197F1F7EA
:1002A000089580E00E94B8008EE991E00E94C500A8
:1002B00088E893E128EB30E0F9013197F1F70197F5
:1002C000D9F74C9BFECF80E00E94B80088EA91E00D
:1002D0000E94C50008951F920F920FB60F9211242D
:1002E0008F9381E0809346028F910F900FBE0F9005
:1002F0001F9018951092800085E0809381008FEF09
:100300009FEF9093850080938400EFE6F0E080817A
:100310008160808308951F920F920FB60F9211246F
:100320008F939F9389B190E0929582958F708927E2
:100330009F708927982F9170809147029817F1F448
:100340009923E1F480E098E40197F1F78091C000EF
:1003500085FFFCCF8EEF8093C6008091C00085FFA3
:10036000FCCF83E58093C6008091C00085FFFCCF61
:1003700081E08093C6008FEF9FEF1BC080E098E480
:100380000197F1F78091C00085FFFCCF8EEF80933D
:10039000C6008091C00085FFFCCF83E58093C60036
:1003A0008091C00085FFFCCF86E08093C60088EB7B
:1003B0009BE090938500809384009F918F910F9094
:1003C0000FBE0F901F901895DF92EF92FF920F9340
:1003D0001F93DF93CF93CDB7DEB72A970FB6F8946C
:1003E000DEBF0FBECDBF9EE1D92ED9828FEF8A83AB
:1003F00088E6BE016F5F7F4F42E050E020E030E0D2
:1004000000E010E00E94CE068DE18B838FE08C83AC
:1004100083E0E82EF12CEC0EFD1E88E6B70142E0E9
:1004200050E020E030E00E94CE06DB8287E08C8343
:1004300088E6B70142E050E020E030E00E94CE06BE
:100440008FE18D831E8288E6BE016B5F7F4F42E0A5
:1004500050E020E030E00E94CE0681E08F8381E40E
:10046000888788E6BE01695F7F4F42E050E020E068
:1004700030E00E94CE0683E089871A8688E6BE01B6
:10048000675F7F4F42E050E020E030E00E94CE0600
:10049000882341F080E00E94B80088EB91E00E9440
:1004A000C50014C080E00E94B80089EC91E00E9471
:1004B000C50080E098E40197F1F780E395E728EB29
:1004C00030E0F9013197F1F70197D9F72A960FB685
:1004D000F894DEBF0FBECDBFCF91DF911F910F917A
:1004E000FF90EF90DF9008952F923F924F925F928E
:1004F0006F927F928F929F92AF92BF92CF92DF9234
:10050000EF92FF920F931F93DF93CF93CDB7DEB798
:10051000AA970FB6F894DEBF0FBECDBF7894809136
:100520006C00886080936C0080916800826080938A
:10053000680054981092800085E0809381008FEFCE
:100540009FEF909385008093840080916F0081607D
:1005500080936F008FE290E09093C5008093C40079
:100560008091C10088608093C1008091C10080614A
:100570008093C10086E08093C2000E946B008DE1F1
:100580000E9476070E94E40180E197E228EB30E0C8
:10059000F9013197F1F70197D9F70E94510180E1F4
:1005A00097E228EB30E0F9013197F1F70197D9F79D
:1005B00080E40E94B80080914602882319F08DEDF6
:1005C00091E002C087EE91E00E94C5001D861E8664
:1005D0001F86188AFE01719686E0DF011D928A95BA
:1005E000E9F7DE015796E6E2F2E086E001900D922F
:1005F0008150E1F71D8E1E8E1F8E18A2DE0191968E
:10060000E0E3F2E086E001900D928150E1F71FA255
:1006100018A619A61AA621E0E22EF12CAA24BB24C2
:1006200099E0692E712C6C0E7D1E8DE0482E512CA8
:100630004C0E5D1E02C067017601B1E0EB16F104BD
:1006400079F0E1E0EE16F10408F411C1F2E0EF16E2
:10065000F10409F4BBC183E0E816F10471F7BCC2F0
:100660000E94F60084E50E94B80082EF91E00E94AB
:10067000C50001E0C02ED12C992412E0812EB8EBE8
:100680002B2E312CF0C0809146028823E1F310928A
:1006900046028E821D8289E6BE016A5F7F4F41E07D
:1006A00050E09E012B5F3F4F01E010E00E94CE061C
:1006B0008D8180FFC9C083E08C831B8289E6BE01E7
:1006C0006C5F7F4F41E050E09E012D5F3F4F0E94E5
:1006D000CE068B818F708B83EE24FF24AFC094E015
:1006E0009A83198289E6BE016E5F7F4F41E050E038
:1006F0009E012F5F3F4F01E010E00E94CE0629814E
:1007000027FF99C02F77298330E021503040C9015D
:100710006AE070E00E947B078C01C9016AE070E02A
:100720000E947B07FB01EE0FFF1FE60FF71FE00F94
:10073000F11FE65CFD4F108100D000D000D0EDB776
:10074000FEB73196ADB7BEB712967C926E921197F6
:100750008CEF91E093838283812F992787FD909579
:10076000958384830E94AB07ADB7BEB716960FB6CC
:10077000F894BEBF0FBEADBFC3010E94C5001A32C0
:1007800009F04EC0A40CB51CF5011082CE014796AD
:10079000B2010E94A2070097B1F484E50E94B8005C
:1007A0008FEF91E00E94C50084E50E94B8008FE0C1
:1007B00092E00E94C5001D86CC24DD24AA24BB241F
:1007C0009924939441C084E50E94B8008FEF91E092
:1007D0000E94C50084E50E94B80084E192E00E9476
:1007E000C50088E893E1F1013197F1F70197D9F756
:1007F00084E50E94B80082EF91E00E94C50080E18C
:1008000097E2F1013197F1F70197D9F781E08093F1
:1008100046021D8671E0C72ED12CAA24BB2414C029
:10082000F9E0AF16B10438F4F201EA0DFB1D1083B4
:100830000894A11CB11C0894E11CF11C8B8190E070
:10084000E816F9060CF44BCF8F828FE1888788E693
:10085000BE01695F7F4F42E050E020E030E000E001
:1008600010E00E94CE06992009F40DCFE5CE0E943B
:10087000D200992462E0862E54E0252E312C2C0ED5
:100880003D1EA0C0809146028823E1F310924602EB
:1008900089821A8289E6BE016F5F7F4F41E050E096
:1008A0009E012E5F3F4F01E010E00E94CE068A813C
:1008B00080FF79C083E08B831C8289E6BE016D5F77
:1008C0007F4F41E050E091010E94CE068C818F70F5
:1008D0008C83CC24DD2461C094E09D831E8289E654
:1008E000BE016B5F7F4F41E050E09E012A5F3F4FAA
:1008F00001E010E00E94CE062E8127FF4BC02F772B
:100900002E8330E021503040C9016AE070E00E943F
:100910007B078C01C9016AE070E00E947B07FB0144
:10092000EE0FFF1FE60FF71FE00FF11FE65CFD4F14
:10093000108100D000D000D0EDB7FEB73196ADB732
:10094000BEB712967C926E9211978CEF91E09383D2
:100950008283812F992787FD9095958384830E94B8
:10096000AB07ADB7BEB716960FB6F894BEBF0FBEB5
:10097000ADBFC3010E94C500133221F431E0E32E64
:10098000F12C05C01A3231F422E0E22EF12C992428
:10099000939409C00894C11CD11C8C8190E0C816A6
:1009A000D9060CF499CF8F82BFE1B88788E6BE01E3
:1009B000695F7F4F42E050E020E030E000E010E06F
:1009C0000E94CE06992009F45DCF35CE0E941A010F
:1009D0001D86EE24FF24BB2492E0A92E89E0482E38
:1009E000512C4C0E5D1E0DE0802E912C8C0E9D1E08
:1009F00018EB612E712CB7E02B2E312C2C0E3D1EE6
:100A0000E8C0809146028823E1F310924602AE824C
:100A10001D8289E6BE016A5F7F4F41E050E09E0182
:100A20002B5F3F4F01E010E00E94CE068D8180FFDA
:100A3000C3C083E08C831B8289E6BE016C5F7F4F5D
:100A400041E050E09E012D5F3F4F0E94CE068B811A
:100A50008F708B83CC24DD24A9C0E4E0EA83198263
:100A600089E6BE016E5F7F4F41E050E09E012F5F3F
:100A70003F4F01E010E00E94CE06298127FF93C07E
:100A80002F77298330E021503040C9016AE070E0BF
:100A90000E947B078C01C9016AE070E00E947B071D
:100AA000FB01EE0FFF1FE60FF71FE00FF11FE65CE3
:100AB000FD4F108100D000D000D0EDB7FEB73196C9
:100AC000ADB7BEB712965C924E9211978CEF91E043
:100AD00093838283812F992787FD909595838483C3
:100AE0000E94AB07ADB7BEB716960FB6F894BEBF5F
:100AF0000FBEADBFC2010E94C5001332F9F01A3219
:100B000009F046C0E80CF91CF7011082CE0181966D
:100B1000B4010E94A2070097A1F484E50E94B800E6
:100B20008FEF91E00E94C50084E50E94B8008FE03D
:100B300092E00E94C5001D86EE24FF24BB24B394DE
:100B40003BC084E50E94B8008FEF91E00E94C50091
:100B500084E50E94B80084E192E00E94C50088E824
:100B600093E1F3013197F1F70197D9F784E50E94FA
:100B7000B80082EF91E00E94C50080E197E2F301A6
:100B80003197F1F70197D9F781E080934602D3CFEF
:100B9000F9E0EF16F10438F4F401EE0DFF1D1083B7
:100BA0000894E11CF11C0894C11CD11C8B8190E0BD
:100BB000C816D9060CF451CFAF828FE1888788E63A
:100BC000B10142E050E020E030E000E010E00E949F
:100BD000CE06BB2009F415CF0E94F60084E50E94E2
:100BE000B80082EF91E00E94C5001D86CC24DD2470
:100BF00079E0672E712C6C0E7D1E6CEF262E61E065
:100C0000362E5DE0A52EB12CAC0EBD1E47E1842E24
:100C1000912C8C0E9D1E38EB432E512CBAC0109295
:100C2000460282E089831A8289E6BE016F5F7F4FA8
:100C300041E050E09E012E5F3F4F01E010E00E9436
:100C4000CE068A8180FF95C083E08B831C8289E673
:100C5000BE016D5F7F4F41E050E09E012C5F3F4F32
:100C60000E94CE068C818F708C83EE24FF247BC083
:100C700094E09D831E8289E6BE016B5F7F4F41E059
:100C800050E09E012A5F3F4F01E010E00E94CE0637
:100C90002E8127FF65C02F772E8330E02150304012
:100CA000C9016AE070E00E947B078C01C9016AE01B
:100CB00070E00E947B07FB01EE0FFF1FE60FF71F9E
:100CC000E00FF11FE65CFD4F108100D000D000D096
:100CD000EDB7FEB73196ADB7BEB712967C926E9265
:100CE000119733822282812F992787FD90959583D2
:100CF00084830E94AB07EDB7FEB736960FB6F89423
:100D0000FEBF0FBEEDBFC3010E94C5001A32E9F459
:100D1000F501EC0DFD1D1082D401F5018AE0019072
:100D20000D928150E1F784E50E94B8008CE192E0D9
:100D30000E94C500C4010E94C50080E197E2F20153
:100D40003197F1F70197D9F70BC0F9E0CF16D1042D
:100D500038F4F501EC0DFD1D10830894C11CD11C65
:100D60000894E11CF11C8C8190E0E816F9060CF463
:100D70007FCF82E08F838FE1888788E6BE01695F3D
:100D80007F4F42E050E020E030E000E010E00E94C1
:100D9000CE06809146028823E1F341CFFF920F9364
:100DA0001F93F82EFB01D901000000000000000095
:100DB000000041155105E9F184EA8093BC0080915F
:100DC000BC0087FFFCCF9091B900987F983009F064
:100DD00088C08F2D8E7F8093BB0084E88093BC00F9
:100DE0008091BC0087FFFCCF9091B900987F98312B
:100DF00021F0903209F075C071C024E880818093A1
:100E0000BB002093BC008091BC0087FFFCCF909179
:100E1000B900987F41505040983239F431964115CD
:100E2000510561F791E081E006C0903309F059C0A7
:100E300055C090E080E00115110509F44CC08823ED
:100E400011F428E001C020E184EA8093BC00809185
:100E5000BC0087FFFCCF9091B900987F921709F0F2
:100E600040C081E0F82AF092BB0084E88093BC0087
:100E70008091BC0087FFFCCF9091B900987F90349F
:100E800019F0983471F52AC00150104024EC10C0BC
:100E90002093BC008091BC0087FFFCCF9091B900EB
:100EA000987F015010409035E1F48091BB008D9304
:100EB0000115110569F784E88093BC008091BC009E
:100EC00087FFFCCF9091B900987F983551F48091BD
:100ED000BB008C9302C0992321F090E084E98093B9
:100EE000BC00892F1F910F91FF9008951092B900B7
:100EF0008093B800089597FB092E07260AD077FD46
:100F000004D00CD006D000201AF4709561957F4F64
:100F10000895F6F7909581959F4F0895AA1BBB1BE6
:100F200051E107C0AA1FBB1FA617B70710F0A61BE9
:100F3000B70B881F991F5A95A9F780959095BC010A
:100F4000CD010895FB01DC018D9101908019011004
:100F5000D9F3990B0895AEE0B0E0E1EBF7E00C9423
:100F60005A0A0D891E8986E08C831A8309838FEFC4
:100F70009FE79E838D839E01275E3F4FCE010196A2
:100F80006F89788DA9010E94CF072F813885020FC4
:100F9000131FF80110822E96E4E00C94760AABE061
:100FA000B0E0E5EDF7E00C944C0A3C012B015A014E
:100FB000FC0117821682838181FD03C06FEF7FEFF2
:100FC000C6C19AE0892E1E010894211C311CF30130
:100FD0002381F20123FD859123FF81912F01882335
:100FE00009F4B2C1853239F423FD859123FF819143
:100FF0002F01853229F490E0B3010E94C209E7CFA6
:10100000982FFF24EE249924FFE1FF15D0F09B32A6
:1010100069F09C3228F4903259F0933291F40EC06A
:101020009D3249F0903369F441E024C052E0F52A42
:1010300084E0F82A28C098E0F92A25C0E0E1FE2AD9
:1010400022C0F7FC29C0892F80538A3070F4F6FE45
:1010500005C0989C902C1124980E15C0E89CE02C9B
:101060001124E80EF0E2FF2A0EC09E3229F4F6FCAD
:101070006BC140E4F42A07C09C3619F450E8F52A05
:1010800002C0983649F4F20123FD959123FF919116
:101090002F01992309F0B8CF892F8554833018F098
:1010A0008052833038F444E050E0A40EB51E5FE374
:1010B00059830FC0933631F0933779F0933509F0A7
:1010C00056C020C0F5018081898342E050E0A40E23
:1010D000B51E610101E010E012C0F501C080D180B1
:1010E000F6FC03C06FEF7FEF02C0692D70E042E0B5
:1010F00050E0A40EB51EC6010E94B7098C015FE73F
:10110000F52214C0F501C080D180F6FC03C06FEF5A
:101110007FEF02C0692D70E042E050E0A40EB51EE2
:10112000C6010E94AC098C0150E8F52AF3FE07C005
:101130001AC080E290E0B3010E94C209EA948E2DA9
:1011400090E008171907A8F30EC0F601F7FC859187
:10115000F7FE81916F0190E0B3010E94C209E11096
:10116000EA94015010400115110579F7EAC0943650
:1011700011F0993669F5F7FE08C0F501208131813B
:101180004281538184E090E00AC0F5018081918121
:101190009C01442737FD4095542F82E090E0A80E33
:1011A000B91E9FE6F92257FF09C05095409530952A
:1011B00021953F4F4F4F5F4FE0E8FE2ACA01B9012A
:1011C000A1012AE030E00E94EE09D82ED21840C0DA
:1011D000953729F41F2D1F7E2AE030E01DC01F2DFA
:1011E000197F9F3661F0903720F4983509F0ACC034
:1011F0000FC0903739F0983709F0A6C004C028E036
:1012000030E00AC0106114FD146020E130E004C039
:1012100014FD166020E132E017FF08C0F50160817F
:1012200071818281938144E050E008C0F5018081A2
:101230009181BC0180E090E042E050E0A40EB51E38
:10124000A1010E94EE09D82ED2188FE7F82EF122C4
:10125000F6FE0BC05EEFF522D91438F4F4FE07C099
:10126000F2FC05C08FEEF82202C01D2D01C0192D21
:10127000F4FE0DC0FE01ED0DF11D8081803319F4E7
:1012800099EEF92208C01F5FF2FE05C003C08F2D42
:10129000867809F01F5F0F2DF3FC14C0F0FE0FC01D
:1012A0001E1510F09D2C0BC09D2C9E0C911A1E2D0E
:1012B00006C080E290E0B3010E94C2091F5F1E15C4
:1012C000C0F304C01E1510F4E11A01C0EE2404FF9F
:1012D0000FC080E390E0B3010E94C20902FF1DC06D
:1012E00001FD03C088E790E00EC088E590E00BC0E8
:1012F000802F867891F001FF02C08BE201C080E26E
:10130000F7FC8DE290E0B3010E94C20906C080E3C1
:1013100090E0B3010E94C2099A94D914C0F3DA9400
:10132000F101ED0DF11D808190E0B3010E94C20931
:10133000DD20A9F706C080E290E0B3010E94C20957
:10134000EA94EE20C1F743CEF30166817781CB01A9
:101350002B96E2E10C94680AFC0105906150704004
:101360000110D8F7809590958E0F9F1F0895FC016E
:101370006150704001900110D8F7809590958E0FC4
:101380009F1F08950F931F93CF93DF938C01EB0161
:101390008B8181FF1BC082FF0DC02E813F818C811C
:1013A0009D812817390764F4E881F9810193F98355
:1013B000E88306C0E885F985802F0995892B31F4EB
:1013C0008E819F8101969F838E8302C00FEF1FEF56
:1013D000C801DF91CF911F910F910895FA01AA27BB
:1013E000283051F1203181F1E8946F936E7F6E5F68
:1013F0007F4F8F4F9F4FAF4FB1E03ED0B4E03CD016
:10140000670F781F891F9A1FA11D680F791F8A1FF8
:10141000911DA11D6A0F711D811D911DA11D20D05F
:1014200009F468943F912AE0269F11243019305D19
:101430003193DEF6CF010895462F4770405D41930A
:10144000B3E00FD0C9F7F6CF462F4F70405D4A3357
:1014500018F0495D31FD4052419302D0A9F7EACF1F
:10146000B4E0A6959795879577956795BA95C9F74E
:1014700000976105710508959B01AC010A2E069441
:101480005795479537952795BA95C9F7620F731FFA
:10149000841F951FA01D08952F923F924F925F9237
:1014A0006F927F928F929F92AF92BF92CF92DF9274
:1014B000EF92FF920F931F93CF93DF93CDB7DEB7D9
:1014C000CA1BDB0B0FB6F894DEBF0FBECDBF09946D
:1014D0002A88398848885F846E847D848C849B84C4
:1014E000AA84B984C884DF80EE80FD800C811B81D2
:1014F000AA81B981CE0FD11D0FB6F894DEBF0FBE01
:0A150000CDBFED010895F894FFCF70
:10150A00506F726368202050726F746563746F72D3
:10151A00002A2A2A20554E4C4F434B4544202A2A5A
:10152A002A0020205052455353202320464F522050
:10153A004C4F434B00506F7263682050726F746552
:10154A0063746F72002A2A2A204C4F434B45442069
:10155A002A2A2A00434F444520414E44202A205437
:10156A004F20554E4C4F434B002A494E505554205C
:10157A004D415354455220434F444520544F204334
:10158A004F4E542E2A00434F44452026202A204FEE
:10159A0052202320544F2052455455524E004E6F2C
:1015AA00204D6F74696F6E004D6F74696F6E2044C1
:1015BA0065746563746564004B657970616420497C
:1015CA006E6974204661696C004B657970616420AC
:1015DA00496E6974205375636365737300666C6141
:1015EA0067205452554500666C61672046414C534A
:1015FA004500507265737365643A200025630020C4
:10160A0020202020202020202020202020200050C0
:10161A00415353004E4F2050415353004E455720DB
:10162A00434F44453A00313233343500000000005C
:10163A00353433323100000000003132333435366C
:06164A003738392A302375
:00000001FF
