:100000000C9434000C9451000C9451000C94510049
:100010000C9401030C9451000C9451000C94920325
:100020000C9451000C9451000C9451000C9451000C
:100030000C9451000C94DE030C945F030C9451005B
:100040000C9451000C9451000C9451000C945100EC
:100050000C9451000C9451000C9451000C945100DC
:100060000C9451000C94510011241FBECFEFD8E026
:10007000DEBFCDBF12E0A0E0B1E0E4E6FCE102C0EB
:1000800005900D92A03BB107D9F722E0A0EBB2E0BA
:1000900001C01D92AF3BB207E1F70E94E0040C944F
:1000A000300E0C9400009091C00095FFFCCF80931F
:1000B000C60008959093C5008093C400E1ECF0E081
:1000C00080818860808380818061808386E08093E6
:1000D000C20008958FEF97E40197F1F700C0000088
:1000E0008EEF0E94530081E40E9453008FEF97E44B
:1000F0000197F1F700C000008EEF0E94530081E5E8
:100100000E9453008FEF97E40197F1F700C00000C1
:100110008EEF0E94530083E50E94530086E00C940A
:100120005300CF93C82F8EEF0E9453008C2FCF9196
:100130000C945300CF93C82F85E40E9491008C2F1C
:10014000CF910C945300CF93DF93EC0189918111EF
:1001500003C0DF91CF9108950E945300F7CF0E9412
:100160006A0082E00E949A0080E291E00E94A3006F
:100170008FEF97E40197F1F700C0000082E40E943E
:100180009A0081E391E00E94A3008FEF97E401972A
:10019000F1F700C0000084E10E949A0082E491E03F
:1001A0000E94A3008FEF97E40197F1F700C00000D1
:1001B00084E50E949A0086E591E00C94A3000E94D9
:1001C0006A0082E00E949A0080E291E00E94A3000F
:1001D0008FEF97E40197F1F700C0000082E40E94DE
:1001E0009A0081E391E00E94A3008FEF97E40197CA
:1001F000F1F700C0000084E50E949A0082E491E0DB
:100200000E94A3008FEF97E40197F1F700C0000070
:1002100008950E946A0082E00E949A008AE691E0B6
:100220000E94A3008FEF97E40197F1F700C0000050
:1002300082E40E949A008AE791E00E94A3008FEF77
:1002400097E40197F1F700C0000084E10E949A0052
:1002500089E891E00C94A3000E946A0082E00E9469
:100260009A008AE691E00E94A3008FEF97E401973D
:10027000F1F700C0000084E20E949A008EE991E04C
:100280000E94A3008FEF97E40197F1F700C00000F0
:1002900082E40E949A0082EB91E00C94A3000E94F9
:1002A0006A0082E00E949A008AE691E00E94A30020
:1002B0008FEF97E40197F1F700C0000080E40E94FF
:1002C0009A008AEC91E00E94A3008FEF97E40197D7
:1002D000F1F700C0000084E10E949A008AED91E0ED
:1002E0000E94A3008FEF97E40197F1F700C0000090
:1002F00008950E946A0082E00E949A008AE691E0D6
:100300000E94A3008FEF97E40197F1F700C000006F
:1003100084E10E949A008AEE91E00E94A3008FEF90
:1003200097E40197F1F700C0000084E50E949A006D
:100330008CEF91E00E94A3008FEF97E40197F1F713
:1003400000C0000008958EEF0E94530081E50E94D6
:10035000530086E69EE00197F1F700000895CF93E1
:10036000DF93CDB7DEB72A970FB6F894DEBF0FBE86
:10037000CDBF4C012B013A01F12CE12C3CE0232EA6
:1003800032E0332ECE0101966C018091B3028823B6
:10039000E1F31092B30282E08A87198601E010E04F
:1003A0009E01275F3F4F41E050E0BE01665F7F4FF7
:1003B00089E60E943304898580FF58C083E08887DE
:1003C0001F829E01295F3F4F41E050E0BE01685F00
:1003D0007F4F89E60E9433048F818F708F83B12C09
:1003E000A12C8F818A151B0409F00CF43FC094E006
:1003F0009E831D8201E010E09E012B5F3F4F41E094
:1004000050E0BE016A5F7F4F89E60E9433048D8110
:1004100087FF44C08F778D838150990B6AE070E02D
:100420000E94F60AFB01EE0FFF1FE60FF71FE050D8
:10043000FF4FE80FF91F1081812F012E000C990B3F
:100440009F931F933F922F92DF92CF920E94580B5F
:10045000C6010E94A3000F900F900F900F900F9075
:100460000F90133291F481E0F201808382E089835E
:100470008FE18A8310E000E030E020E042E050E0CD
:10048000B60188E60E94330480CF1A3259F4F40191
:10049000EE0DFF1D108281E0F3018083FFEFAF1AA4
:1004A000BF0A9FCFE114F104C9F7F4011083EE24D1
:1004B000E394F12CF3CFFF920F931F93CF93DF932D
:1004C000CDB7DEB72A970FB6F894DEBF0FBECDBF0B
:1004D0008EE1F82EF9868FEF8A8710E000E030E099
:1004E00020E042E050E0BE01675F7F4F88E60E9457
:1004F00033048DE18F838FE0888730E020E042E095
:1005000050E0BE01695F7F4F88E60E943304FF829E
:1005100087E0888730E020E042E050E0BE01695F7C
:100520007F4F88E60E9433048FE18D831E8230E086
:1005300020E042E050E0BE016B5F7F4F88E60E9402
:10054000330481E08B8381E48C8330E020E042E05F
:1005500050E0BE016D5F7F4F88E60E94330483E068
:1005600089831A8230E020E042E050E0BE016F5FF4
:100570007F4F88E60E943304882399F080E00E9430
:100580009A008FE092E00E94A3002A960FB6F8949A
:10059000DEBF0FBECDBFDF91CF911F910F91FF90B6
:1005A000089580E00E949A0080E292E00E94A300F9
:1005B0008FEF97E40197F1F700C000009FEF2FE75E
:1005C00083E4915020408040E1F700C00000DDCF7F
:1005D00080E00E949A0084E392E00E94A3002FEF43
:1005E0008FE39BE0215080409040E1F700C0000085
:1005F0004C9BFECF80E00E949A008EE392E00C9428
:10060000A3001F920F920FB60F9211248F9381E0D7
:100610008093B3028F910F900FBE0F901F9018958B
:100620001092800085E0809381008FEF9FEF909380
:10063000850080938400EFE6F0E080818160808314
:100640000895559A82E08093B000E0E7F0E0808161
:100650008260808308951092BB021092BC021092B7
:10066000BD021092BE029C01A0EDB7E00E942C0BCF
:1006700028EE33E040E050E00E940A0B2093B702DE
:100680003093B8024093B9025093BA028BEC809336
:10069000B30082E08093B100789408951092B10085
:1006A0005D980895529882E084BD85E085BD87E419
:1006B00087BDEEE6F0E080818260808308951F921E
:1006C0000F920FB60F9211242F938F939F934A9BF3
:1006D00022C08091B5029091B60280329E4448F4C7
:1006E0008091B5029091B6020A969093B6028093DB
:1006F000B5028091B5029091B60280329E4418F006
:1007000081E08093B4029F918F912F910F900FBE43
:100710000F901F9018951092B6021092B502109289
:10072000B402F1CF1F920F920FB60F9211242F93A4
:100730003F934F935F936F937F938F939F93AF9369
:10074000BF93EF93FF938091BB029091BC02A09165
:10075000BD02B091BE02AC01BD014F5F5F4F6F4F54
:100760007F4F4093BB025093BC026093BD027093D5
:10077000BE024091B7025091B8026091B9027091E7
:10078000BA0284179507A607B707A8F48BB190E2C1
:1007900089278BB9FF91EF91BF91AF919F918F9175
:1007A0007F916F915F914F913F912F910F900FBE6D
:1007B0000F901F9018950E944E03ECCF1F920F923E
:1007C0000FB60F9211242F933F934F935F936F9324
:1007D0007F938F939F93AF93BF93EF93FF9399B1C1
:1007E0003091B20281E0292F207194FF80E038130C
:1007F00028C0211126C08FEF97E40197F1F700C0C0
:1008000000008EEF0E94530083E50E94530081E0B8
:100810000E9453008FEF9FEF909385008093840098
:10082000FF91EF91BF91AF919F918F917F916F91C8
:100830005F914F913F912F910F900FBE0F901F909E
:1008400018958FEF97E40197F1F700C000008EEF45
:100850000E94530083E50E94530086E00E945300EB
:1008600088EB9BE0D9CFFF920F931F93F82EFB01EB
:10087000D9010000000000000000000041155105F2
:10088000E9F184EA8093BC008091BC0087FFFCCF33
:100890009091B900987F983009F088C08F2D8E7F95
:1008A0008093BB0084E88093BC008091BC0087FFEC
:1008B000FCCF9091B900987F983121F0903209F0E7
:1008C00075C071C024E880818093BB002093BC0078
:1008D0008091BC0087FFFCCF9091B900987F415078
:1008E0005040983239F431964115510561F791E045
:1008F00081E006C0903309F059C055C090E080E017
:100900000115110509F44CC0882311F428E001C039
:1009100020E184EA8093BC008091BC0087FFFCCF7B
:100920009091B900987F921709F040C081E0F82AB1
:10093000F092BB0084E88093BC008091BC0087FFEC
:10094000FCCF9091B900987F903419F0983471F5EC
:100950002AC00150104024EC10C02093BC008091AC
:10096000BC0087FFFCCF9091B900987F01501040E8
:100970009035E1F48091BB008D930115110569F765
:1009800084E88093BC008091BC0087FFFCCF9091ED
:10099000B900987F983551F48091BB008C9302C0C8
:1009A000992321F090E084E98093BC00892F1F9166
:1009B0000F91FF9008951092B9008093B8000895A8
:1009C000CF93DF93CDB7DEB7AB970FB6F894DEBF0A
:1009D0000FBECDBF789480916C00886080936C00CE
:1009E000809168008260809368005498539A5B9865
:1009F000249A2C980E9410030E9421030E94520303
:100A00008FE290E00E945A000E946A008DE10E94ED
:100A1000DB040E945B022FEF8FE796E121508040BC
:100A20009040E1F700C000000E94E802AFEFBFE78E
:100A300026E1A150B0402040E1F700C0000080E472
:100A40000E949A008091B302882309F4BFC08EE40B
:100A500092E00E94A3001E8A1D8AFE01779688E01C
:100A6000DF011D928A95E9F786E0ECE0F1E0DE0116
:100A70001B9601900D928A95E1F784E0FE01719634
:100A8000DF01282F1D922A95E9F796E0E6E1F1E0D3
:100A9000DE01119601900D929A95E1F7FE013796CD
:100AA000DF011D928A95E9F7559AF12CE12C82E03D
:100AB00090E08230910509F401C108F08AC00097E6
:100AC00009F4C6C281309105A1F75B9A0E94DF004C
:100AD0008091B4028823C9F082E00E949A0085E7E1
:100AE00092E00E94A30082E00E949A0086E892E0D1
:100AF0000E94A3004A9927C20E94DF0084E50E9459
:100B00009A0083E692E00E94A30055245394412C5E
:100B10001AE0612E712C0CE0802E02E0902E6E0106
:100B20002FE1C20ED11C8091B4028823C9F082E06B
:100B30000E949A0085E792E00E94A30082E00E9452
:100B40009A0086E892E00E94A3004A9901C20E949E
:100B5000DF0084E50E949A0083E692E00E94A300F1
:100B60003090B3023320F9F21092B30282E08BA7E7
:100B70001AA601E010E09E01265D3F4F41E050E0E3
:100B8000BE01655D7F4F89E60E9433048AA580FF20
:100B90001BC083E089A718A69E01285D3F4F41E056
:100BA00050E0BE01675D7F4F89E60E94330488A54F
:100BB0008F7088A7B12CA12CB4E02B2E88A58A15A4
:100BC0001B0411F00CF0C9C1312C26C288E592E05B
:100BD00040CF8330910509F448C38430910509F072
:100BE00068CF0E944F0184E50E949A0083E692E05C
:100BF0000E94A3001D8A44E0542E412CF12CE12CCC
:100C00005AE0252E312C6CE0862E62E0962E6E0185
:100C10008FE1C80ED11C8091B4028823C9F082E014
:100C20000E949A0085E792E00E94A30082E00E9461
:100C30009A0086E892E00E94A3004A99E9C30E94C4
:100C40004F0184E50E949A0083E692E00E94A3008F
:100C50007090B3027720F9F21092B30282E089A774
:100C600018A601E010E09E01285D3F4F41E050E0F2
:100C7000BE01675D7F4F89E60E94330488A580FF2F
:100C80001BC083E08FA31EA29E012A5D3F4F41E05F
:100C900050E0BE01695D7F4F89E60E9433048EA15A
:100CA0008F708EA3B12CA12C34E0632E8EA18A15F7
:100CB0001B0411F00CF0B1C3712C00C45B980E94AE
:100CC000090184E50E949A0083E692E00E94A30055
:100CD00042E0542E412CD12CC12C5CE0652E52E018
:100CE000752E5E01BFE1AB0EB11C3090B302332014
:100CF000E1F31092B30282E089A718A601E010E0A8
:100D00009E01285D3F4F41E050E0BE01675D7F4F8F
:100D100089E60E94330488A580FF1AC083E08FA370
:100D20001EA29E012A5D3F4F41E050E0BE01695D79
:100D30007F4F89E60E9433048EA18F708EA3912C81
:100D4000812C34E0232E8EA18815190409F014F4A7
:100D5000312C65C02DA21BA201E010E09E012D5D8B
:100D60003F4F41E050E0BE016B5D7F4F89E60E943E
:100D700033048BA187FFE3C08F778BA38150990B3E
:100D80006AE070E00E94F60AFB01EE0FFF1FE60F1B
:100D9000F71FE050FF4FE80FF91F1081812F012E40
:100DA000000C990B9F931F937F926F92BF92AF920B
:100DB0000E94580BC5010E94A3000F900F900F9046
:100DC0000F900F900F901A3209F0ABC0E5E1F0E000
:100DD000EC0FFD1FEE0DFF1D1082BE016B5E7F4FFD
:100DE000CE010B960E944F0B892B51F51092B10248
:100DF00084E50E949A0086E792E00E94A30084E5C1
:100E00000E949A008CED95E00E942B0380E792E00F
:100E10000E94A3001D8A512C412CF12CE12C82E070
:100E20008F8F8FE188A310E000E030E020E042E007
:100E300050E0B50188E60E9433043110D4C255CF8A
:100E4000BE016B5E7F4FCE0101960E944F0B892B36
:100E5000E9F48091B102811119C081E08093B1025F
:100E600084E50E949A0086E792E00E94A30084E550
:100E70000E949A008CED95E00E942B0380E792E09F
:100E80000E94A3001D8A55245394C6CF84E50E9476
:100E90009A0086E792E00E94A30084E50E949A00EF
:100EA0008DE692E00E94A3002FEFC21AD20A8AEFC9
:100EB00090E00E942B038FEF9FE3ABE081509040C6
:100EC000A040E1F700C0000084E50E949A0083E69C
:100ED00092E00E94A300BFEF2FE786E1B1502040CF
:100EE0008040E1F700C0000081E08093B3021D8ADA
:100EF00082E0582E412C93E0C916D10481F42C9A3B
:100F0000AFEFBFE726E1A150B0402040E1F700C0BD
:100F100000002C9892E0592E412CD12CC12C312C60
:100F20007CCF89E0E816F10454F4E5E1F0E0EC0F41
:100F3000FD1FEE0DFF1D1083D70111967D01BFEF40
:100F40008B1A9B0A00CF84EF91E00E942B03D2CD35
:100F500084EF91E00E942B03F8CD2FA21EA201E0A6
:100F600010E09E012A5D3F4F41E050E0BE01695D07
:100F70007F4F89E60E9433048EA187FF65C08F777B
:100F80008EA38150990BB3010E94F60AFB01EE0F6C
:100F9000FF1FE60FF71FE050FF4FE80FF91F10810A
:100FA000812F012E000C990B9F931F939F928F927C
:100FB000DF92CF920E94580B0F900F900F900F90DE
:100FC0000F900F90133209F03FC04A993AC084E65F
:100FD00090E00E942B031DA201E010E09E012B5D1A
:100FE0003F4F41E050E0BE01695D7F4F89E60E94BE
:100FF000330482E08BA38FE18CA310E000E030E0AB
:1010000020E042E050E0BE016D5D7F4F88E60E9427
:10101000330472E0572E412C82E08F8F8FE188A33A
:1010200010E000E030E020E042E050E0B60188E669
:101030000E9433043110D7C176CD84EF91E00E9435
:101040002B034A99FACFC3CF8FEFA81AB80AB6CDAF
:101050005B9A0E94AF008091B4028823C9F082E0BD
:101060000E949A0085E792E00E94A30082E00E941D
:101070009A0086E892E00E94A3004A9968C00E9404
:10108000AF0084E50E949A0083E692E00E94A300EC
:10109000512C412C5AE0652E712C6CE0862E62E0BA
:1010A000962E6E019FE1C90ED11C8091B402882357
:1010B000C9F082E00E949A0085E792E00E94A300B6
:1010C00082E00E949A0086E892E00E94A3004A997A
:1010D00043C00E94AF0084E50E949A0083E692E03C
:1010E0000E94A3003090B3023320F9F21092B302B1
:1010F00082E08BA71AA601E010E09E01265D3F4F1B
:1011000041E050E0BE01655D7F4F89E60E943304F7
:101110008AA580FF1AC083E089A718A69E01285DD2
:101120003F4F41E050E0BE01675D7F4F89E60E947E
:10113000330488A58F7088A7B12CA12C44E0242EFD
:1011400088A58A151B0409F064F4312C69C084EF6A
:1011500091E00E942B0391CF84EF91E00E942B033A
:10116000B6CF2FA21EA201E010E09E012A5D3F4FE4
:1011700041E050E0BE01695D7F4F89E60E94330483
:101180008EA187FF6EC08F778EA38150990BB3011C
:101190000E94F60AFB01EE0FFF1FE60FF71FE0505B
:1011A000FF4FE80FF91F1081812F012E000C990BC2
:1011B0009F931F939F928F92DF92CF920E94580B22
:1011C0000F900F900F900F900F900F90133209F027
:1011D0003FC04A993AC084E690E00E942B031DA2CA
:1011E00001E010E09E012B5D3F4F41E050E0BE0169
:1011F000695D7F4F89E60E94330482E08BA38FE113
:101200008CA310E000E030E020E042E050E0BE01BE
:101210006D5D7F4F88E60E94330422E0522E412C00
:1012200082E08F8F8FE188A310E000E030E020E0C3
:1012300042E050E0B60188E60E9433043110D3C08A
:1012400034CF84EF91E00E942B034A99FACFC3CFA9
:101250001A3239F484E690E00E942B0393E0592E71
:10126000DECFAFEFAA1ABA0A6BCF0E9479011D8AAE
:1012700013E0512E412C0AE0802E912C8CE0A82EF8
:1012800082E0B82E7E01BFE1EB0EF11C8091B4022A
:101290008823C9F082E00E949A0085E792E00E94CC
:1012A000A30082E00E949A0086E892E00E94A300D8
:1012B0004A993EC00E94790184E50E949A0083E623
:1012C00092E00E94A3007090B3027720F9F210928E
:1012D000B30282E089A718A601E010E09E01285D14
:1012E0003F4F41E050E0BE01675D7F4F89E60E94BD
:1012F000330488A580FF1AC083E08FA31EA29E013D
:101300002A5D3F4F41E050E0BE01695D7F4F89E6B5
:101310000E9433048EA18F708EA3D12CC12CB4E017
:101320006B2E8EA18C151D0409F03CF4712C48C065
:1013300084EF91E00E942B03BBCF6DA21BA201E0C2
:1013400010E09E012D5D3F4F41E050E0BE016B5D1E
:101350007F4F89E60E9433048BA187FF55C08F77AA
:101360008BA38150990BB4010E94F60AFB01EE0F8A
:10137000FF1FE60FF71FE050FF4FE80FF91F108126
:10138000812F012E000C990B9F931F93BF92AF9258
:10139000FF92EF920E94580BC7010E94A3000F908A
:1013A0000F900F900F900F900F901133F9F410924F
:1013B000B00284E690E00E942B0374E0572E412C8B
:1013C00082E08F8F8FE188A310E000E030E020E022
:1013D00042E050E0B70188E60E943304772009F428
:1013E00055CFF12CE12C852D942D63CB123321F4B4
:1013F00081E08093B002DDCF133231F484E690E0D7
:101400000E942B03512CDBCF2FEFC21AD20A89CFB7
:1014100084EF91E00E942B0310CC6DA21BA201E08F
:1014200010E09E012D5D3F4F41E050E0BE016B5D3D
:101430007F4F89E60E9433048BA187FFC2C08F775C
:101440008BA38150990BB1010E94F60AFB01EE0FAC
:10145000FF1FE60FF71FE050FF4FE80FF91F108145
:10146000812F012E000C990B9F931F939F928F92B7
:10147000DF92CF920E94580BC6010E94A3000F90EA
:101480000F900F900F900F900F90133209F044C0FF
:1014900084E50E949A0085E992E00E94A30084E618
:1014A00090E00E942B039FEFAFE7B6E19150A04080
:1014B000B040E1F700C00000512C412C83E08EA326
:1014C0001DA201E010E09E012B5D3F4F41E050E086
:1014D000BE016A5D7F4F89E60E9433048DA18F7043
:1014E0008DA3B12CA12C84E0682E8DA18A151B043C
:1014F00011F00CF06AC082E08F8F8FE188A310E0BA
:1015000000E030E020E042E050E0B60188E60E94D2
:101510003304711068CF7FCB1A3209F044C0E5E183
:10152000F0E0EC0FFD1FEE0DFF1D10828091B00268
:10153000882381F18AE0FE017596DE011B960190F9
:101540000D928A95E1F71D8A84E50E949A0086E74C
:1015500092E00E94A30084E50E949A0088EE93E046
:101560000E942B0385EA92E00E94A3008091B002C2
:101570008823B1F0CE010B960E94A3002FEF8FE7D6
:1015800096E1215080409040E1F700C00000F12C2E
:10159000E12C92CF8AE0FE017596DE011196CFCF45
:1015A000CE010196E9CFA9E0EA16F10454F4E5E191
:1015B000F0E0EC0FFD1FEE0DFF1D1083C70101963B
:1015C0007C019FEFA91AB90A71CB1BA26F8E01E0B3
:1015D00010E09E012D5D3F4F41E050E0B60189E6ED
:1015E0000E943304AFEFAA1ABA0A7FCF97FB072EE7
:1015F00016F4009407D077FD09D00E943B0B07FC3E
:1016000005D03EF4909581959F4F08957095619512
:101610007F4F0895A1E21A2EAA1BBB1BFD010DC02E
:10162000AA1FBB1FEE1FFF1FA217B307E407F50792
:1016300020F0A21BB30BE40BF50B661F771F881F6E
:10164000991F1A9469F760957095809590959B0104
:10165000AC01BD01CF010895A29FB001B39FC001AD
:10166000A39F700D811D1124911DB29F700D811DCE
:101670001124911D0895AA1BBB1B51E107C0AA1F8D
:10168000BB1FA617B70710F0A61BB70B881F991F23
:101690005A95A9F780959095BC01CD010895FB015D
:1016A000DC018D91019080190110D9F3990B0895F7
:1016B000AEE0B0E0EEE5FBE00C94070E0D891E896C
:1016C00086E08C831A8309838FEF9FE79E838D8347
:1016D000AE01475E5F4F6F89788DCE0101960E9403
:1016E0007B0B2F813885020F131FF80110822E9675
:1016F000E4E00C94230EABE0B0E0E1E8FBE00C94F6
:10170000F90D7C013B018A01FC011782168283815D
:1017100081FFC8C1CE0101965C01F7019381F301FD
:1017200093FD859193FF81913F01882309F453C173
:10173000853239F493FD859193FF81913F01853284
:1017400029F4B70190E00E946B0DE7CF912C212C7A
:10175000312CFFE1F31538F08B3211F190F4803227
:1017600009F1833229F137FC3CC020ED280F2A30E3
:1017700050F536FE20C08AE0989E200D1124922E4E
:1017800006C08D3291F0803371F7689430F8F30120
:1017900093FD859193FF81913F018111DACF21C0A3
:1017A000689431F8689432F8F2CF689433F8EFCF48
:1017B000689434F8ECCFEAE02E9E200D1124222EFE
:1017C000689435F8E4CF8E3229F436FC04C168946D
:1017D00036F8DDCF8C3619F4689437F8D8CF8836D0
:1017E000B1F2982F9F7D95549330E0F08336A1F1AC
:1017F0008337C1F1833509F063C02801F2E04F0E51
:10180000511CF801C080D180692D70E036FC02C007
:101810006FEF7FEFC6010E94550D4C01689437F8B9
:1018200082010AC00C5F1F4FFFE3F9838824839471
:10183000912C6501E89437F833FE2DC0522C8114A9
:10184000910471F5552009F468CFB70180E290E06A
:101850000E946B0D5A94F6CFF801808189830E5F48
:101860001F4FE4CF2801F2E04F0E511CF801C08059
:10187000D180692D70E036FC02C06FEF7FEFC601AA
:101880000E94600D4C018201D5CFB70180E290E04B
:101890000E946B0D2A942814190409F0B0F7CECFDA
:1018A000F60137FC859137FE81916F01B70190E019
:1018B0000E946B0D51105A94F1E08F1A9108BFCF1E
:1018C000843619F0893609F077C0F80137FE6BC00D
:1018D00060817181828193810C5F1F4FF32DFF76B0
:1018E0003F2E97FF09C090958095709561957F4F29
:1018F0008F4F9F4F689437F82AE030E0A5010E948F
:101900009B0DC82ECA188C2C432C36FE0CC0E894B4
:1019100040F8C91440F434FE05C032FC03C0F32D76
:10192000FE7E4F2E892C44FE95C0FE01EC0DF11D6C
:101930008081803309F087C0242D297E422E842D9A
:101940008870582E43FC95C040FE8FC09C2C82149A
:1019500018F42C0C922C981844FE91C0B70180E327
:1019600090E00E946B0D42FE09C088E790E041FEC6
:1019700002C088E590E0B7010E946B0DC91408F41D
:101980008AC0CA94D12C9FEFC91AD90ACA0CDB1C91
:10199000F60182916F01B70190E00E946B0DAC14CB
:1019A000BD04B1F74FCF60817181072E000C880B09
:1019B000990B0E5F1F4F92CFD32CE894D4F82AE0F6
:1019C00030E0853739F1232D297FD22E8F3601F172
:1019D00048F48835A9F0F701868197812B96E2E1DA
:1019E0000C94150E803749F08837A9F7D4FE02C051
:1019F0006894D2F820E130E00DC06894D4F8F6CFB6
:101A000034FE03C0822F8660D82E20E132E002C06F
:101A100028E030E0F801D7FE0FC06081718182813B
:101A200093810C5F1F4FA5010E949B0DC82ECA1801
:101A30003D2CE89437F867CF6081718190E080E0B9
:101A40000E5F1F4FF0CF42FC02C0839478CF839487
:101A5000839475CF842D867809F471CFF6CFB701C2
:101A600080E290E00E946B0D83948214C0F3512CAD
:101A700073CF522C5818821408F46ECFF8CF842DEF
:101A8000867809F47BCF8BE241FE80E247FC8DE251
:101A9000B70190E071CFB70180E390E00E946B0D39
:101AA0009A946CCF8FEF9FEF99CFFC010590615016
:101AB00070400110D8F7809590958E0F9F1F089564
:101AC000FC016150704001900110D8F7809590950D
:101AD0008E0F9F1F08950F931F93CF93DF93182F9F
:101AE000092FEB018B8181FD09C01FEF0FEF812FC3
:101AF000902FDF91CF911F910F91089582FF14C015
:101B00002E813F818C819D81281739073CF4E88123
:101B1000F981CF0101969983888310838E819F81FB
:101B200001969F838E83E3CFE885F985812F099500
:101B3000892BA1F3DACFFA01AA27283051F12031FD
:101B400081F1E8946F936E7F6E5F7F4F8F4F9F4F51
:101B5000AF4FB1E03ED0B4E03CD0670F781F891F93
:101B60009A1FA11D680F791F8A1F911DA11D6A0F61
:101B7000711D811D911DA11D20D009F468943F9114
:101B80002AE0269F11243019305D3193DEF6CF0113
:101B90000895462F4770405D4193B3E00FD0C9F7D9
:101BA000F6CF462F4F70405D4A3318F0495D31FD46
:101BB0004052419302D0A9F7EACFB4E0A695979599
:101BC000879577956795BA95C9F70097610571056F
:101BD00008959B01AC010A2E0694579547953795B9
:101BE0002795BA95C9F7620F731F841F951FA01D13
:101BF00008952F923F924F925F926F927F928F92B1
:101C00009F92AF92BF92CF92DF92EF92FF920F938B
:101C10001F93CF93DF93CDB7DEB7CA1BDB0B0FB695
:101C2000F894DEBF0FBECDBF09942A883988488852
:101C30005F846E847D848C849B84AA84B984C884E8
:101C4000DF80EE80FD800C811B81AA81B981CE0FDF
:101C5000D11D0FB6F894DEBF0FBECDBFED010895C4
:041C6000F894FFCF26
:101C64003132333435363738392A3023313233344C
:101C74003500000000003131313131000000000036
:101C8400506F726368202050726F746563746F7252
:101C9400002A2A2A20554E4C4F434B4544202A2AD9
:101CA4002A0020205052455353202320464F5220CF
:101CB4004C4F434B200020205052455353202A20A0
:101CC400544F2052455345542000506F726368208E
:101CD40050726F746563746F72002A2A2A204C4F05
:101CE400434B4544202A2A2A00434F444520414E71
:101CF40044202A20544F20554E4C4F434B002A4930
:101D04004E505554204D415354455220434F444561
:101D14002A00434F4445202B202A204F52202320C1
:101D2400544F2052455455524E005345543A204E78
:101D3400455720434F4445202A00233A2043414E2F
:101D440043454C20524553455400313A2052657363
:101D540065742044454C495645525900323A205244
:101D640065736574204D4153544552002563004BFF
:101D7400657970616420496E6974204661696C00FC
:101D84004B657970616420496E697420537563638F
:101D9400657373004E6F204D6F74696F6E004D6FE5
:101DA40074696F6E20446574656374656400666C61
:101DB4006167205452554500666C61672046414C6A
:101DC400534500507265737365643A20004E4F208A
:101DD4005041535300202020202020202020202068
:101DE400202020202000202A434C4F534520444FDC
:101DF4004F522A200052455345542043414E4345F7
:101E04004C4C4544004E455720434F44453A00004E
:00000001FF
