:100000000C9434000C9449000C9449000C94490061
:100010000C9449000C9449000C9449000C9449003C
:100020000C9449000C9449000C9449000C9449002C
:100030000C9449000C9449000C9449000C9449001C
:100040000C9449000C9449000C9449000C9449000C
:100050000C9449000C9449000C9449000C944900FC
:100060000C9449000C94490011241FBECFEFD8E036
:10007000DEBFCDBF11E0A0E0B1E0E6ECF9E002C0E8
:1000800005900D92AE34B107D9F70E9443010C944C
:10009000E1040C940000982F8091C00085FFFCCFF4
:1000A0009093C60008959093C5008093C400E1EC3E
:1000B000F0E080818860808380818061808386E039
:1000C0008093C200089588EE93E028EB30E0F901B8
:1000D0003197F1F70197D9F78091C00085FFFCCFE8
:1000E0008EEF8093C6008091C00085FFFCCF83E532
:1000F0008093C6008091C00085FFFCCF88E080938C
:10010000C6000895982F8091C00085FFFCCF8EEF28
:100110008093C6008091C00085FFFCCF9093C600FD
:1001200008951F93182F85E40E9482008091C000DB
:1001300085FFFCCF1093C6001F910895FC0107C0F6
:100140008091C00085FFFCCF31969093C6009081CE
:100150009923B1F7089582E00E94910080E091E038
:100160000E949E0080E098E40197F1F78AE20E94E5
:10017000910081E191E00E949E0008958091C0006D
:1001800085FFFCCF8EEF8093C6008091C00085FF75
:10019000FCCF81E58093C60086E69EE00197F1F7EB
:1001A0000895FF920F931F93DF93CF93CDB7DEB7E0
:1001B00068970FB6F894DEBF0FBECDBF8DE1F82E65
:1001C000FB828FE38C8388E6BE016D5F7F4F42E048
:1001D00050E020E030E000E010E00E945C01882365
:1001E00031F080E00E94910082E291E03EC080E028
:1001F0000E94910082E391E00E949E0080E098E4DA
:100200000197F1F7F9821A8289E6BE016F5F7F4F8D
:1002100041E050E09E012E5F3F4F01E010E00E9460
:100220005C0182E40E94910000D000D000D0EDB7C4
:10023000FEB731968E010B5F1F4FADB7BEB712965A
:100240001C930E93119781E491E0938382838A81BA
:10025000848315820E9409028DB79EB706960FB659
:10026000F8949EBF0FBE8DBFC8010E949E00689685
:100270000FB6F894DEBF0FBECDBFCF91DF911F91B7
:100280000F91FF9008958FE290E09093C5008093C6
:10029000C400E1ECF0E0808188608083808180612F
:1002A000808386E08093C2008DE10E9404020E9458
:1002B000D10080E090E00895FF920F931F93F82EF5
:1002C000FB01D90100000000000000000000411502
:1002D0005105E9F184EA8093BC008091BC0087FF5E
:1002E000FCCF9091B900987F983009F088C08F2D8D
:1002F0008E7F8093BB0084E88093BC008091BC001B
:1003000087FFFCCF9091B900987F983121F090320F
:1003100009F075C071C024E880818093BB002093F0
:10032000BC008091BC0087FFFCCF9091B900987F02
:1003300041505040983239F431964115510561F7DA
:1003400091E081E006C0903309F059C055C090E0BB
:1003500080E00115110509F44CC0882311F428E050
:1003600001C020E184EA8093BC008091BC0087FF3B
:10037000FCCF9091B900987F921709F040C081E0BE
:10038000F82AF092BB0084E88093BC008091BC0006
:1003900087FFFCCF9091B900987F903419F0983482
:1003A00071F52AC00150104024EC10C02093BC000D
:1003B0008091BC0087FFFCCF9091B900987F0150DD
:1003C00010409035E1F48091BB008D93011511052B
:1003D00069F784E88093BC008091BC0087FFFCCF64
:1003E0009091B900987F983551F48091BB008C931F
:1003F00002C0992321F090E084E98093BC00892F0A
:100400001F910F91FF9008951092B9008093B8004A
:100410000895AEE0B0E0EFE0F2E00C94B8040D898E
:100420001E8986E08C831A8309838FEF9FE79E8362
:100430008D839E01275E3F4FCE0101966F89788D97
:10044000A9010E942D022F813885020F131FF80188
:1004500010822E96E4E00C94D404ABE0B0E0E3E329
:10046000F2E00C94AA043C012B015A01FC01178212
:100470001682838181FD03C06FEF7FEFC6C19AE0D2
:10048000892E1E010894211C311CF3012381F201E5
:1004900023FD859123FF81912F01882309F4B2C1A7
:1004A000853239F423FD859123FF81912F01853217
:1004B00029F490E0B3010E942004E7CF982FFF2495
:1004C000EE249924FFE1FF15D0F09B3269F09C32B5
:1004D00028F4903259F0933291F40EC09D3249F0D5
:1004E000903369F441E024C052E0F52A84E0F82A10
:1004F00028C098E0F92A25C0E0E1FE2A22C0F7FCD6
:1005000029C0892F80538A3070F4F6FE05C0989C6C
:10051000902C1124980E15C0E89CE02C1124E80EB4
:10052000F0E2FF2A0EC09E3229F4F6FC6BC140E4D3
:10053000F42A07C09C3619F450E8F52A02C0983610
:1005400049F4F20123FD959123FF91912F01992305
:1005500009F0B8CF892F8554833018F0805283304A
:1005600038F444E050E0A40EB51E5FE359830FC099
:10057000933631F0933779F0933509F056C020C0A7
:10058000F5018081898342E050E0A40EB51E61012F
:1005900001E010E012C0F501C080D180F6FC03C07C
:1005A0006FEF7FEF02C0692D70E042E050E0A40ED3
:1005B000B51EC6010E9415048C015FE7F52214C028
:1005C000F501C080D180F6FC03C06FEF7FEF02C061
:1005D000692D70E042E050E0A40EB51EC6010E94F5
:1005E0000A048C0150E8F52AF3FE07C01AC080E225
:1005F00090E0B3010E942004EA948E2D90E0081749
:100600001907A8F30EC0F601F7FC8591F7FE81915A
:100610006F0190E0B3010E942004E110EA940150C0
:1006200010400115110579F7EAC0943611F099369A
:1006300069F5F7FE08C0F5012081318142815381BF
:1006400084E090E00AC0F501808191819C014427FB
:1006500037FD4095542F82E090E0A80EB91E9FE62A
:10066000F92257FF09C050954095309521953F4F8D
:100670004F4F5F4FE0E8FE2ACA01B901A1012AE00D
:1006800030E00E944C04D82ED21840C0953729F48F
:100690001F2D1F7E2AE030E01DC01F2D197F9F36C1
:1006A00061F0903720F4983509F0ACC00FC0903756
:1006B00039F0983709F0A6C004C028E030E00AC03D
:1006C000106114FD146020E130E004C014FD1660D8
:1006D00020E132E017FF08C0F5016081718182815D
:1006E000938144E050E008C0F50180819181BC0114
:1006F00080E090E042E050E0A40EB51EA1010E940F
:100700004C04D82ED2188FE7F82EF122F6FE0BC03B
:100710005EEFF522D91438F4F4FE07C0F2FC05C0F0
:100720008FEEF82202C01D2D01C0192DF4FE0DC060
:10073000FE01ED0DF11D8081803319F499EEF9224F
:1007400008C01F5FF2FE05C003C08F2D867809F038
:100750001F5F0F2DF3FC14C0F0FE0FC01E1510F02C
:100760009D2C0BC09D2C9E0C911A1E2D06C080E264
:1007700090E0B3010E9420041F5F1E15C0F304C067
:100780001E1510F4E11A01C0EE2404FF0FC080E32F
:1007900090E0B3010E94200402FF1DC001FD03C0D0
:1007A00088E790E00EC088E590E00BC0802F867847
:1007B00091F001FF02C08BE201C080E2F7FC8DE204
:1007C00090E0B3010E94200406C080E390E0B301F2
:1007D0000E9420049A94D914C0F3DA94F101ED0D2B
:1007E000F11D808190E0B3010E942004DD20A9F773
:1007F00006C080E290E0B3010E942004EA94EE205B
:10080000C1F743CEF30166817781CB012B96E2E1FC
:100810000C94C604FC010590615070400110D8F79B
:10082000809590958E0F9F1F0895FC016150704038
:1008300001900110D8F7809590958E0F9F1F089515
:100840000F931F93CF93DF938C01EB018B8181FF7B
:100850001BC082FF0DC02E813F818C819D81281796
:10086000390764F4E881F9810193F983E88306C0CC
:10087000E885F985802F0995892B31F48E819F8138
:1008800001969F838E8302C00FEF1FEFC801DF9197
:10089000CF911F910F910895FA01AA27283051F1A5
:1008A000203181F1E8946F936E7F6E5F7F4F8F4FA1
:1008B0009F4FAF4FB1E03ED0B4E03CD0670F781F00
:1008C000891F9A1FA11D680F791F8A1F911DA11DE5
:1008D0006A0F711D811D911DA11D20D009F468941E
:1008E0003F912AE0269F11243019305D3193DEF6C6
:1008F000CF010895462F4770405D4193B3E00FD07C
:10090000C9F7F6CF462F4F70405D4A3318F0495D66
:1009100031FD4052419302D0A9F7EACFB4E0A69549
:100920009795879577956795BA95C9F7009761056B
:10093000710508959B01AC010A2E069457954795C1
:1009400037952795BA95C9F7620F731F841F951FB6
:10095000A01D08952F923F924F925F926F927F92C7
:100960008F929F92AF92BF92CF92DF92EF92FF92BF
:100970000F931F93CF93DF93CDB7DEB7CA1BDB0B6B
:100980000FB6F894DEBF0FBECDBF09942A88398810
:1009900048885F846E847D848C849B84AA84B98417
:1009A000C884DF80EE80FD800C811B81AA81B98123
:1009B000CE0FD11D0FB6F894DEBF0FBECDBFED0137
:0609C0000895F894FFCF3A
:1009C600506F726368202050726F746563746F7223
:1009D600002A2A2A20554E4C4F434B4544202A2AAA
:1009E6002A00544341205772697465204661696C38
:1009F600210054434120577269746520476F6F6424
:0E0A060000444154413A2030782530325800E7
:00000001FF
