:100000000C9434000C9451000C9451000C94510049
:100010000C94AD020C9451000C9451000C943E03CE
:100020000C9451000C9451000C9451000C9451000C
:100030000C9451000C948A030C940B030C94510003
:100040000C9451000C9451000C9451000C945100EC
:100050000C9451000C9451000C9451000C945100DC
:100060000C9451000C94510011241FBECFEFD8E026
:10007000DEBFCDBF12E0A0E0B1E0E6E8F9E102C0EA
:1000800005900D92AA39B107D9F722E0AAE9B2E0AA
:1000900001C01D92A73AB207E1F70E948C040C94AC
:1000A000C10C0C9400009091C00095FFFCCF809390
:1000B000C60008959093C5008093C400E1ECF0E081
:1000C00080818860808380818061808386E08093E6
:1000D000C20008958FEF97E40197F1F700C0000088
:1000E0008EEF0E94530081E40E9453008FEF97E44B
:1000F0000197F1F700C000008EEF0E94530081E5E8
:100100000E9453008FEF97E40197F1F700C00000C1
:100110008EEF0E94530083E50E94530086E00C940A
:100120005300CF93C82F8EEF0E9453008C2FCF9196
:100130000C945300CF93C82F85E40E9491008C2F1C
:10014000CF910C945300CF93DF93EC0189918111EF
:1001500003C0DF91CF9108950E945300F7CF0E9412
:100160006A0082E00E949A0080E291E00E94A3006F
:100170008FEF97E40197F1F700C0000082E40E943E
:100180009A0081E391E00E94A3008FEF97E401972A
:10019000F1F700C0000084E10E949A0082E491E03F
:1001A0000E94A3008FEF97E40197F1F700C00000D1
:1001B00084E50E949A0086E591E00C94A3000E94D9
:1001C0006A0082E00E949A008AE691E00E94A30001
:1001D0008FEF97E40197F1F700C0000082E40E94DE
:1001E0009A008AE791E00E94A3008FEF97E40197BD
:1001F000F1F700C0000084E10E949A0089E891E0D4
:100200000C94A3000E946A0082E00E949A008AE691
:1002100091E00E94A3008FEF97E40197F1F700C0EF
:10022000000084E20E949A008EE991E00E94A300FF
:100230008FEF97E40197F1F700C0000082E40E947D
:100240009A0082EB91E00C94A3000E946A0082E085
:100250000E949A008AE691E00E94A3008FEF97E443
:100260000197F1F700C0000084E20E949A008AEC36
:1002700091E00E94A3008FEF97E40197F1F700C08F
:10028000000082E40E949A008FED91E00E94A3009A
:100290008FEF97E40197F1F700C0000008958EEF0B
:1002A0000E94530081E50E94530086E69EE001977C
:1002B000F1F700000895CF93DF93CDB7DEB72A970B
:1002C0000FB6F894DEBF0FBECDBF4C012B013A0133
:1002D000F12CE12C36EF232E31E0332ECE010196A6
:1002E0006C0180919B028823E1F310929B0282E0D3
:1002F0008A87198601E010E09E01275F3F4F41E0A9
:1003000050E0BE01665F7F4F89E60E94DF0389856A
:1003100080FF58C083E088871F829E01295F3F4F7E
:1003200041E050E0BE01685F7F4F89E60E94DF0335
:100330008F818F708F83B12CA12C8F818A151B0424
:1003400009F00CF43FC094E09E831D8201E010E0B0
:100350009E012B5F3F4F41E050E0BE016A5F7F4F3F
:1003600089E60E94DF038D8187FF44C08F778D83EC
:100370008150990B6AE070E00E948709FB01EE0F43
:10038000FF1FE60FF71FE050FF4FE80FF91F108126
:10039000812F012E000C990B9F931F933F922F9258
:1003A000DF92CF920E94E909C6010E94A3000F903C
:1003B0000F900F900F900F900F90133291F481E0F7
:1003C000F201808382E089838FE18A8310E000E07C
:1003D00030E020E042E050E0B60188E60E94DF0312
:1003E00080CF1A3259F4F401EE0DFF1D108281E026
:1003F000F3018083FFEFAF1ABF0A9FCFE114F1042E
:10040000C9F7F4011083EE24E394F12CF3CFFF92AB
:100410000F931F93CF93DF93CDB7DEB72A970FB615
:10042000F894DEBF0FBECDBF8EE1F82EF9868FEFB8
:100430008A8710E000E030E020E042E050E0BE01BA
:10044000675F7F4F88E60E94DF038DE18F838FE037
:10045000888730E020E042E050E0BE01695F7F4FD6
:1004600088E60E94DF03FF8287E0888730E020E093
:1004700042E050E0BE01695F7F4F88E60E94DF03E3
:100480008FE18D831E8230E020E042E050E0BE012B
:100490006B5F7F4F88E60E94DF0381E08B8381E4FE
:1004A0008C8330E020E042E050E0BE016D5F7F4F82
:1004B00088E60E94DF0383E089831A8230E020E02F
:1004C00042E050E0BE016F5F7F4F88E60E94DF038D
:1004D000882399F080E00E949A0089EF91E00E94C1
:1004E000A3002A960FB6F894DEBF0FBECDBFDF91F2
:1004F000CF911F910F91FF90089580E00E949A0084
:100500008AE092E00E94A3008FEF97E40197F1F751
:1005100000C000009FEF2FE783E49150204080400F
:10052000E1F700C00000DDCF80E00E949A008EE17C
:1005300092E00E94A3002FEF8FE39BE021508040C8
:100540009040E1F700C000004C9BFECF80E00E948D
:100550009A0088E292E00C94A3001F920F920FB6CB
:100560000F9211248F9381E080939B028F910F90C3
:100570000FBE0F901F9018951092800085E0809319
:1005800081008FEF9FEF9093850080938400EFE6CA
:10059000F0E08081816080830895559A82E08093A5
:1005A000B000E0E7F0E080818260808308951092DF
:1005B000A3021092A4021092A5021092A6029C011E
:1005C000A0EDB7E00E94BD0928EE33E040E050E026
:1005D0000E949B0920939F023093A0024093A102A6
:1005E0005093A2028BEC8093B30082E08093B10021
:1005F000789408951092B1005D980895529882E021
:1006000084BD85E085BD87E487BDEEE6F0E08081AE
:100610008260808308951F920F920FB60F9211246B
:100620002F938F939F934A9B22C080919D0290911C
:100630009E0280329E4448F480919D0290919E02D9
:100640000A9690939E0280939D0280919D029091C4
:100650009E0280329E4418F081E080939C029F911C
:100660008F912F910F900FBE0F901F9018951092A1
:100670009E0210929D0210929C02F1CF1F920F9247
:100680000FB60F9211242F933F934F935F936F9365
:100690007F938F939F93AF93BF93EF93FF9380913B
:1006A000A3029091A402A091A502B091A602AC0170
:1006B000BD014F5F5F4F6F4F7F4F4093A302509339
:1006C000A4026093A5027093A60240919F025091EC
:1006D000A0026091A1027091A20284179507A6075B
:1006E000B707A8F48BB190E289278BB9FF91EF91FE
:1006F000BF91AF919F918F917F916F915F914F913A
:100700003F912F910F900FBE0F901F9018950E9450
:10071000FA02ECCF1F920F920FB60F9211242F9373
:100720003F934F935F936F937F938F939F93AF9379
:10073000BF93EF93FF9399B130919A0281E0292FF3
:10074000207194FF80E0381328C0211126C08FEF5C
:1007500097E40197F1F700C000008EEF0E9453006C
:1007600083E50E94530081E00E9453008FEF9FEFCA
:100770009093850080938400FF91EF91BF91AF919A
:100780009F918F917F916F915F914F913F912F91A9
:100790000F900FBE0F901F9018958FEF97E4019761
:1007A000F1F700C000008EEF0E94530083E50E9425
:1007B000530086E00E94530088EB9BE0D9CFFF9264
:1007C0000F931F93F82EFB01D901000000000000D9
:1007D0000000000041155105E9F184EA8093BC0056
:1007E0008091BC0087FFFCCF9091B900987F983032
:1007F00009F088C08F2D8E7F8093BB0084E88093A2
:10080000BC008091BC0087FFFCCF9091B900987F1D
:10081000983121F0903209F075C071C024E88081D0
:100820008093BB002093BC008091BC0087FFFCCF6D
:100830009091B900987F41505040983239F43196E8
:100840004115510561F791E081E006C0903309F050
:1008500059C055C090E080E00115110509F44CC065
:10086000882311F428E001C020E184EA8093BC00D1
:100870008091BC0087FFFCCF9091B900987F9217C0
:1008800009F040C081E0F82AF092BB0084E8809330
:10089000BC008091BC0087FFFCCF9091B900987F8D
:1008A000903419F0983471F52AC00150104024ECAE
:1008B00010C02093BC008091BC0087FFFCCF9091BA
:1008C000B900987F015010409035E1F48091BB0051
:1008D0008D930115110569F784E88093BC00809120
:1008E000BC0087FFFCCF9091B900987F983551F4F8
:1008F0008091BB008C9302C0992321F090E084E9A1
:100900008093BC00892F1F910F91FF900895109242
:10091000B9008093B8000895CF93DF93CDB7DEB7C9
:10092000A8970FB6F894DEBF0FBECDBF7894809124
:100930006C00886080936C00809168008260809376
:1009400068005498539A5B98249A2C980E94BC0291
:100950000E94CD020E94FE028FE290E00E945A00A7
:100960000E946A008DE10E9487040E9407022FEF17
:100970008FE796E1215080409040E1F700C00000F1
:100980000E949402AFEFBFE726E1A150B0402040A3
:10099000E1F700C0000080E40E949A0080919B0271
:1009A000882309F4ACC088E392E00E94A3001E8A69
:1009B0001D8AFE01779688E0DF011D928A95E9F78E
:1009C00086E0ECE0F1E0DE011B9601900D928A9545
:1009D000E1F784E0FE017196DF01282F1D922A9530
:1009E000E9F796E0E6E1F1E0DE01119601900D9263
:1009F0009A95E1F7FE013796DF011D928A95E9F796
:100A0000559AF12CE12C01E010E07AE0A72EB12CF0
:100A10006E01BFE1CB0ED11C0130110509F472C08B
:100A200008F488C10230110509F46AC203301105C7
:100A300099F70E94250184E50E949A008DE492E0D6
:100A40000E94A3001D8A43E0442E512CF12CE12C7E
:100A500056EF252E51E0352E80919C028823C9F057
:100A600082E00E949A008FE592E00E94A30082E05B
:100A70000E949A0080E792E00E94A3004A996BC30B
:100A80000E94250184E50E949A008DE492E00E9474
:100A9000A30070909B027720F9F210929B0282E0F3
:100AA00088A71FA201E010E09E01295D3F4F41E0B1
:100AB00050E0BE01685D7F4F89E60E94DF038FA191
:100AC00080FF1BC083E08EA31DA29E012B5D3F4FC4
:100AD00041E050E0BE016A5D7F4F89E60E94DF037E
:100AE0008DA18F708DA3912C812C34E0632E8DA16C
:100AF0008815190411F00CF033C3712C82C382E401
:100B000092E053CF5B980E94DF0084E50E949A0038
:100B10008DE492E00E94A30044244394512C912C34
:100B2000812C30909B023320E1F310929B0282E0F3
:100B300088A71FA201E010E09E01295D3F4F41E020
:100B400050E0BE01685D7F4F89E60E94DF038FA100
:100B500080FF1AC083E08EA31DA29E012B5D3F4F34
:100B600041E050E0BE016A5D7F4F89E60E94DF03ED
:100B70008DA18F708DA3712C612C64E0262E8DA128
:100B80008615170409F014F4312C64C02CA21BA2A2
:100B900001E010E09E012D5D3F4F41E050E0BE01BD
:100BA0006C5D7F4F89E60E94DF038BA187FFBEC08B
:100BB0008F778BA38150990BB5010E948709FB01A8
:100BC000EE0FFF1FE60FF71FE050FF4FE80FF91F72
:100BD0001081812F012E000C990B9F931F9386EF9C
:100BE00091E09F938F93DF92CF920E94E909C60113
:100BF0000E94A3000F900F900F900F900F900F90F6
:100C00001A3209F085C0E5E1F0E0EC0FFD1FEE0DB2
:100C1000FF1D1082BE016B5E7F4FCE010B960E94BE
:100C2000E009892B51F584E50E949A0080E692E064
:100C30000E94A30084E50E949A008CED95E00E943A
:100C4000D7028AE592E00E94A3001D8A412C512C14
:100C5000F12CE12C82E08F8F8FE188A310E000E07F
:100C600030E020E042E050E0B60188E60E94DF0379
:100C7000332009F456CF8201CFCE84E50E949A003A
:100C800080E692E00E94A30084E50E949A0087E536
:100C900092E00E94A300BFEF8B1A9B0A8AEF90E0BC
:100CA0000E94D7022FEF8FE39BE0215080409040BD
:100CB000E1F700C0000084E50E949A008DE492E014
:100CC0000E94A300AFEFBFE726E1A150B040204053
:100CD000E1F700C0000081E080939B021D8A44245C
:100CE0004394512C83E08816910481F42C9A9FEF51
:100CF000AFE7B6E19150A040B040E1F700C000007E
:100D00002C9844244394512C912C812C312CA0CF2D
:100D100029E0E216F10454F4E5E1F0E0EC0FFD1FE8
:100D2000EE0DFF1D1083C70101967C019FEF691A2C
:100D3000790A25CF5B9A0E94AF0080919C0288239C
:100D4000C9F082E00E949A008FE592E00E94A30021
:100D500082E00E949A0080E792E00E94A3004A99F4
:100D600060C00E94AF0084E50E949A008DE492E08A
:100D70000E94A300280146EF642E41E0742E80916A
:100D80009C028823C9F082E00E949A008FE592E0DD
:100D90000E94A30082E00E949A0080E792E00E94F5
:100DA000A3004A9943C00E94AF0084E50E949A00C4
:100DB0008DE492E00E94A30030909B023320F9F270
:100DC00010929B0282E088A71FA201E010E09E0122
:100DD000295D3F4F41E050E0BE01685D7F4F89E6ED
:100DE0000E94DF038FA180FF1AC083E08EA31DA2A3
:100DF0009E012B5D3F4F41E050E0BE016A5D7F4F99
:100E000089E60E94DF038DA18F708DA3912C812C28
:100E100034E0232E8DA18815190409F064F4312CD7
:100E20004AC084EF91E00E94D70299CF84EF91E00D
:100E30000E94D702B6CF2CA21BA201E010E09E01B7
:100E40002D5D3F4F41E050E0BE016C5D7F4F89E674
:100E50000E94DF038BA187FF4FC08F778BA3815048
:100E6000990BB5010E948709FB01EE0FFF1FE60FEA
:100E7000F71FE050FF4FE80FF91F1081812F012E5F
:100E8000000C990B9F931F937F926F92DF92CF92EA
:100E90000E94E9090F900F900F900F900F900F9004
:100EA000133209F54A991CC084E690E00E94D702EB
:100EB00044244394512C82E08F8F8FE188A310E06B
:100EC00000E030E020E042E050E0B60188E60E9419
:100ED000DF033110D0CE53CF84EF91E00E94D702D0
:100EE0004A99FACFE1CF1A3239F484E690E00E94B1
:100EF000D70282E0482EDECFAFEF8A1A9A0A8ACF55
:100F00000E94020184E50E949A008DE492E00E9412
:100F1000A3001D8A12E0412E512CF12CE12C06EF8A
:100F2000602E01E0702E80919C028823C9F082E03F
:100F30000E949A008FE592E00E94A30082E00E9446
:100F40009A0080E792E00E94A3004A993EC00E9466
:100F5000020184E50E949A008DE492E00E94A300C1
:100F600030909B023320F9F210929B0282E088A716
:100F70001FA201E010E09E01295D3F4F41E050E0DB
:100F8000BE01685D7F4F89E60E94DF038FA180FF6D
:100F90001AC083E08EA31DA29E012B5D3F4F41E04E
:100FA00050E0BE016A5D7F4F89E60E94DF038DA19C
:100FB0008F708DA3912C812CB4E02B2E8DA18815E0
:100FC000190409F03CF4312C48C084EF91E00E94F0
:100FD000D702BBCF2CA21BA201E010E09E012D5D29
:100FE0003F4F41E050E0BE016C5D7F4F89E60E94BB
:100FF000DF038BA187FFABC08F778BA38150990B49
:10100000B5010E948709FB01EE0FFF1FE60FF71FD6
:10101000E050FF4FE80FF91F1081812F012E000CC7
:10102000990B9F931F937F926F92DF92CF920E94B2
:10103000E909C6010E94A3000F900F900F900F9036
:101040000F900F901332D1F484E690E00E94D70203
:101050001D8A412C512CF12CE12C82E08F8F8FE1E5
:1010600088A310E000E030E020E042E050E0B6016C
:1010700088E60E94DF033110FECD55CF1A3209F009
:1010800058C0E5E1F0E0EC0FFD1FEE0DFF1D1082F2
:10109000BE016B5E7F4FCE0101960E94E009892B55
:1010A000B1F484E50E949A0080E692E00E94A300D9
:1010B00084E50E949A008AE592E00E94A30084EFF2
:1010C00091E00E94D7021D8A73E0472EC3CF84E5CA
:1010D0000E949A0080E692E00E94A30084E50E94AC
:1010E0009A0087E592E00E94A3008AEF90E00E94B8
:1010F000D702BFEF2FE38BE0B15020408040E1F7F3
:1011000000C0000084E50E949A008DE492E00E94F5
:10111000A3009FEFAFE7B6E19150A040B040E1F7E8
:1011200000C0000081E080939B021D8A62E0462E91
:1011300091CF29E0E216F10454F4E5E1F0E0EC0F80
:10114000FD1FEE0DFF1D1083C70101967C019FEF6F
:10115000891A990A33CF84EF91E00E94D7028ECC8E
:101160006CA21BA201E010E09E012D5D3F4F41E00B
:1011700050E0BE016C5D7F4F89E60E94DF038BA1CA
:1011800087FFB0C08F778BA38150990BB5010E9468
:101190008709FB01EE0FFF1FE60FF71FE050FF4F1F
:1011A000E80FF91F1081812F012E000C990B9F93DE
:1011B0001F933F922F92DF92CF920E94E909C601BE
:1011C0000E94A3000F900F900F900F900F900F9020
:1011D000133209F044C084E50E949A008FE792E040
:1011E0000E94A30084E690E00E94D702AFEFBFE721
:1011F00026E1A150B0402040E1F700C00000412CA2
:10120000512C83E08DA31CA201E010E09E012C5D17
:101210003F4F41E050E0BE016B5D7F4F89E60E9489
:10122000DF038CA18F708CA3912C812C84E0682E1D
:101230008CA18815190411F00CF058C082E08F8F32
:101240008FE188A310E000E030E020E042E050E0D1
:10125000B60188E60E94DF0371100DCDFDCB1A3276
:1012600099F5E5E1F0E0EC0FFD1FEE0DFF1D10829A
:101270008AE0FE017596DE011B9601900D928A951B
:10128000E1F71D8A84E50E949A0080E692E00E94C0
:10129000A30084E50E949A0088EE93E00E94D702A2
:1012A0008FE892E00E94A300CE010B960E94A3005B
:1012B0008FEF9FE7A6E181509040A040E1F700C08A
:1012C0000000F12CE12C9BCFB9E0EB16F10454F4B3
:1012D000E5E1F0E0EC0FFD1FEE0DFF1D1083C701EF
:1012E00001967C019FEF891A990A01CC1BA26F8E8F
:1012F00001E010E09E012D5D3F4F41E050E0B6015E
:1013000089E60E94DF03AFEF8A1A9A0A91CF97FB12
:10131000072E16F4009407D077FD09D00E94CC095F
:1013200007FC05D03EF4909581959F4F08957095E8
:1013300061957F4F0895A1E21A2EAA1BBB1BFD01E8
:101340000DC0AA1FBB1FEE1FFF1FA217B307E407A4
:10135000F50720F0A21BB30BE40BF50B661F771FFC
:10136000881F991F1A9469F76095709580959095DC
:101370009B01AC01BD01CF010895A29FB001B39FB5
:10138000C001A39F700D811D1124911DB29F700D8E
:10139000811D1124911D0895AA1BBB1B51E107C09B
:1013A000AA1FBB1FA617B70710F0A61BB70B881FF5
:1013B000991F5A95A9F780959095BC01CD01089584
:1013C000FB01DC018D91019080190110D9F3990B7B
:1013D0000895AEE0B0E0EFEEF9E00C94980C0D89C2
:1013E0001E8986E08C831A8309838FEF9FE79E8393
:1013F0008D83AE01475E5F4F6F89788DCE01019678
:101400000E940C0A2F813885020F131FF8011082E9
:101410002E96E4E00C94B40CABE0B0E0E2E1FAE02C
:101420000C948A0C7C013B018A01FC011782168214
:10143000838181FFC8C1CE0101965C01F7019381D0
:10144000F30193FD859193FF81913F01882309F476
:1014500053C1853239F493FD859193FF81913F010A
:10146000853229F4B70190E00E94FC0BE7CF912C64
:10147000212C312CFFE1F31538F08B3211F190F46F
:10148000803209F1833229F137FC3CC020ED280F6E
:101490002A3050F536FE20C08AE0989E200D112497
:1014A000922E06C08D3291F0803371F7689430F837
:1014B000F30193FD859193FF81913F018111DACF73
:1014C00021C0689431F8689432F8F2CF689433F808
:1014D000EFCF689434F8ECCFEAE02E9E200D112473
:1014E000222E689435F8E4CF8E3229F436FC04C1FC
:1014F000689436F8DDCF8C3619F4689437F8D8CF75
:101500008836B1F2982F9F7D95549330E0F0833662
:10151000A1F18337C1F1833509F063C02801F2E0FE
:101520004F0E511CF801C080D180692D70E036FC4F
:1015300002C06FEF7FEFC6010E94E60B4C0168947A
:1015400037F882010AC00C5F1F4FFFE3F98388243C
:101550008394912C6501E89437F833FE2DC0522C0A
:101560008114910471F5552009F468CFB70180E228
:1015700090E00E94FC0B5A94F6CFF8018081898399
:101580000E5F1F4FE4CF2801F2E04F0E511CF8010F
:10159000C080D180692D70E036FC02C06FEF7FEF14
:1015A000C6010E94F10B4C018201D5CFB70180E248
:1015B00090E00E94FC0B2A942814190409F0B0F75B
:1015C000CECFF60137FC859137FE81916F01B701CF
:1015D00090E00E94FC0B51105A94F1E08F1A910890
:1015E000BFCF843619F0893609F077C0F80137FE8D
:1015F0006BC060817181828193810C5F1F4FF32DDD
:10160000FF763F2E97FF09C0909580957095619564
:101610007F4F8F4F9F4F689437F82AE030E0A50145
:101620000E942C0CC82ECA188C2C432C36FE0CC0E1
:10163000E89440F8C91440F434FE05C032FC03C0FD
:10164000F32DFE7E4F2E892C44FE95C0FE01EC0D3D
:10165000F11D8081803309F087C0242D297E422E20
:10166000842D8870582E43FC95C040FE8FC09C2C62
:10167000821418F42C0C922C981844FE91C0B701D7
:1016800080E390E00E94FC0B42FE09C088E790E0F6
:1016900041FE02C088E590E0B7010E94FC0BC9142E
:1016A00008F48AC0CA94D12C9FEFC91AD90ACA0C6F
:1016B000DB1CF60182916F01B70190E00E94FC0BE8
:1016C000AC14BD04B1F74FCF60817181072E000CBF
:1016D000880B990B0E5F1F4F92CFD32CE894D4F850
:1016E0002AE030E0853739F1232D297FD22E8F363D
:1016F00001F148F48835A9F0F701868197812B968E
:10170000E2E10C94A60C803749F08837A9F7D4FEA3
:1017100002C06894D2F820E130E00DC06894D4F89B
:10172000F6CF34FE03C0822F8660D82E20E132E04F
:1017300002C028E030E0F801D7FE0FC0608171815F
:10174000828193810C5F1F4FA5010E942C0CC82E33
:10175000CA183D2CE89437F867CF6081718190E01A
:1017600080E00E5F1F4FF0CF42FC02C0839478CF21
:101770008394839475CF842D867809F471CFF6CF46
:10178000B70180E290E00E94FC0B83948214C0F3C6
:10179000512C73CF522C5818821408F46ECFF8CF06
:1017A000842D867809F47BCF8BE241FE80E247FCF2
:1017B0008DE2B70190E071CFB70180E390E00E9425
:1017C000FC0B9A946CCF8FEF9FEF99CFFC010590A3
:1017D000615070400110D8F7809590958E0F9F1F33
:1017E0000895FC016150704001900110D8F7809578
:1017F00090958E0F9F1F08950F931F93CF93DF93A4
:10180000182F092FEB018B8181FD09C01FEF0FEF0E
:10181000812F902FDF91CF911F910F91089582FF1B
:1018200014C02E813F818C819D81281739073CF49B
:10183000E881F981CF0101969983888310838E8195
:101840009F8101969F838E83E3CFE885F985812F61
:101850000995892BA1F3DACFFA01AA27283051F193
:10186000203181F1E8946F936E7F6E5F7F4F8F4FD1
:101870009F4FAF4FB1E03ED0B4E03CD0670F781F30
:10188000891F9A1FA11D680F791F8A1F911DA11D15
:101890006A0F711D811D911DA11D20D009F468944E
:1018A0003F912AE0269F11243019305D3193DEF6F6
:1018B000CF010895462F4770405D4193B3E00FD0AC
:1018C000C9F7F6CF462F4F70405D4A3318F0495D97
:1018D00031FD4052419302D0A9F7EACFB4E0A6957A
:1018E0009795879577956795BA95C9F7009761059C
:1018F000710508959B01AC010A2E069457954795F2
:1019000037952795BA95C9F7620F731F841F951FE6
:10191000A01D08952F923F924F925F926F927F92F7
:101920008F929F92AF92BF92CF92DF92EF92FF92EF
:101930000F931F93CF93DF93CDB7DEB7CA1BDB0B9B
:101940000FB6F894DEBF0FBECDBF09942A88398840
:1019500048885F846E847D848C849B84AA84B98447
:10196000C884DF80EE80FD800C811B81AA81B98153
:10197000CE0FD11D0FB6F894DEBF0FBECDBFED0167
:061980000895F894FFCF6A
:101986003132333435363738392A3023313233342D
:10199600350000000000353433323100000000000D
:1019A600506F726368202050726F746563746F7233
:1019B600002A2A2A20554E4C4F434B4544202A2ABA
:1019C6002A0020205052455353202320464F5220B0
:1019D6004C4F434B200020205052455353202A2081
:1019E600544F2052455345542000506F726368206F
:1019F60050726F746563746F72002A2A2A204C4FE6
:101A0600434B4544202A2A2A00434F444520414E51
:101A160044202A20544F20554E4C4F434B002A4910
:101A26004E505554204D415354455220434F444542
:101A36002A00434F4445202B202A204F52202320A2
:101A4600544F2052455455524E0020494E5055543D
:101A5600204E455720434F4445202B202A20002066
:101A66002320544F2043414E43454C4C20544F2095
:101A76005245534554002563004B657970616420D7
:101A8600496E6974204661696C004B6579706164C2
:101A960020496E69742053756363657373004E6FD6
:101AA600204D6F74696F6E004D6F74696F6E2044C0
:101AB6006574656374656400666C6167205452558D
:101AC6004500666C61672046414C5345005072657F
:101AD600737365643A20004E4F20504153530020E3
:101AE6002020202020202020202020202020200010
:101AF600202A434C4F534520444F4F522A20005230
:101B0600455345542043414E43454C4C4544004EB5
:0A1B1600455720434F44453A0000B4
:00000001FF
