:100000000C9434000C9451000C9451000C94510049
:100010000C946B010C9451000C9451000C94510001
:100020000C9451000C9451000C9451000C9451000C
:100030000C9451000C948B010C9451000C945100C1
:100040000C9451000C9451000C9451000C945100EC
:100050000C9451000C9451000C9451000C945100DC
:100060000C9451000C94510011241FBECFEFD8E026
:10007000DEBFCDBF12E0A0E0B1E0E6E6F2E102C0F3
:1000800005900D92A633B107D9F712E0A6E3B2E0CE
:1000900001C01D92A833B107E1F70E9474020C94CD
:1000A00031090C940000982F8091C00085FFFCCF8F
:1000B0009093C60008959093C5008093C400E1EC2E
:1000C000F0E080818860808380818061808386E029
:1000D0008093C200089580E098E40197F1F7809141
:1000E000C00085FFFCCF8EEF8093C6008091C000DA
:1000F00085FFFCCF81E48093C60080E098E40197FF
:10010000F1F78091C00085FFFCCF8EEF8093C60091
:100110008091C00085FFFCCF81E58093C60080E020
:1001200098E40197F1F78091C00085FFFCCF8EEF36
:100130008093C6008091C00085FFFCCF83E580934B
:10014000C6008091C00085FFFCCF86E08093C6008A
:100150000895982F8091C00085FFFCCF8EEF80938B
:10016000C6008091C00085FFFCCF9093C600089523
:100170001F93182F85E40E94A9008091C00085FF7D
:10018000FCCF1093C6001F910895FC0107C0809119
:10019000C00085FFFCCF31969093C60090819923D3
:1001A000B1F708950F931F930E946B0082E00E94A5
:1001B000B80080E091E00E94C50000E018E4C801AA
:1001C0000197F1F782E40E94B80081E191E00E947A
:1001D000C500C8010197F1F784E50E94B80082E2EA
:1001E00091E00E94C5001F910F9108950F931F93F6
:1001F0000E946B0082E00E94B80085E391E00E94BB
:10020000C50000E018E4C8010197F1F782E40E94FC
:10021000B80085E491E00E94C500C8010197F1F79C
:1002200084E10E94B80084E591E00E94C5001F911E
:100230000F9108950F931F930E946B0082E00E941C
:10024000B80085E391E00E94C50000E018E4C80111
:100250000197F1F782E40E94B80089E691E00E94DC
:10026000C500C8010197F1F784E50E94B80088E84D
:1002700091E00E94C5001F910F9108958091C000E8
:1002800085FFFCCF8EEF8093C6008091C00085FF74
:10029000FCCF81E58093C60086E69EE00197F1F7EA
:1002A000089580E00E94B80082EA91E00E94C500B3
:1002B00088E893E128EB30E0F9013197F1F70197F5
:1002C000D9F74C9BFECF80E00E94B8008CEA91E009
:1002D0000E94C50008951F920F920FB60F9211242D
:1002E0008F9381E0809336028F910F900FBE0F9015
:1002F0001F9018951092800085E0809381008FEF09
:100300009FEF9093850080938400EFE6F0E080817A
:100310008160808308951F920F920FB60F9211246F
:100320008F939F9389B190E0929582958F708927E2
:100330009F708927982F9170809137029817F1F458
:100340009923E1F480E098E40197F1F78091C000EF
:1003500085FFFCCF8EEF8093C6008091C00085FFA3
:10036000FCCF83E58093C6008091C00085FFFCCF61
:1003700081E08093C6008FEF9FEF1BC080E098E480
:100380000197F1F78091C00085FFFCCF8EEF80933D
:10039000C6008091C00085FFFCCF83E58093C60036
:1003A0008091C00085FFFCCF86E08093C60088EB7B
:1003B0009BE090938500809384009F918F910F9094
:1003C0000FBE0F901F901895DF92EF92FF920F9340
:1003D0001F93DF93CF93CDB7DEB72A970FB6F8946C
:1003E000DEBF0FBECDBF9EE1D92ED9828FEF8A83AB
:1003F00088E6BE016F5F7F4F42E050E020E030E0D2
:1004000000E010E00E947C058DE18B838FE08C83FF
:1004100083E0E82EF12CEC0EFD1E88E6B70142E0E9
:1004200050E020E030E00E947C05DB8287E08C8396
:1004300088E6B70142E050E020E030E00E947C0511
:100440008FE18D831E8288E6BE016B5F7F4F42E0A5
:1004500050E020E030E00E947C0581E08F8381E461
:10046000888788E6BE01695F7F4F42E050E020E068
:1004700030E00E947C0583E089871A8688E6BE0109
:10048000675F7F4F42E050E020E030E00E947C0553
:10049000882341F080E00E94B8008CEB91E00E943C
:1004A000C50014C080E00E94B8008DEC91E00E946D
:1004B000C50080E098E40197F1F780E395E728EB29
:1004C00030E0F9013197F1F70197D9F72A960FB685
:1004D000F894DEBF0FBECDBFCF91DF911F910F917A
:1004E000FF90EF90DF9008952F923F924F925F928E
:1004F0006F927F928F929F92AF92BF92CF92DF9234
:10050000EF92FF920F931F93DF93CF93CDB7DEB798
:10051000A0970FB6F894DEBF0FBECDBF7894809140
:100520006C00886080936C0080916800826080938A
:10053000680054981092800085E0809381008FEFCE
:100540009FEF909385008093840080916F0081607D
:1005500080936F008FE290E09093C5008093C40079
:100560008091C10088608093C1008091C10080614A
:100570008093C10086E08093C2000E946B008DE1F1
:100580000E9424060E94E40180E197E228EB30E01B
:10059000F9013197F1F70197D9F70E94510180E1F4
:1005A00097E228EB30E0F9013197F1F70197D9F79D
:1005B00080E40E94B80080913602882319F081EE11
:1005C00091E002C08BEE91E00E94C5001D861E8660
:1005D0001F86188AFE01719686E0DF011D928A95BA
:1005E000E9F7DE015796E0E2F2E086E001900D9235
:1005F0008150E1F71D8E1E8E1F8E18A261E0E62E3F
:10060000F12CAA24BB2459E0652E712C6C0E7D1EA2
:1006100040E0242E42E0342E3DE0432E512C4C0E7F
:100620005D1E02C067017601B1E0EB16F10451F0E6
:10063000E1E0EE16F10408F409C1F2E0EF16F1046E
:1006400099F7AEC10E94F60084E50E94B80086EFDB
:1006500091E00E94C50021E0C22ED12C992492E0A5
:10066000892EF0C0809136028823E1F31092360281
:1006700089821A8289E6BE016F5F7F4F41E050E0B8
:100680009E012E5F3F4F01E010E00E947C058A81B1
:1006900080FFC9C083E08B831C8289E6BE016D5F49
:1006A0007F4F41E050E09E012C5F3F4F0E947C0550
:1006B0008C818F708C83EE24FF24AFC084E08D8307
:1006C0001E8289E6BE016B5F7F4F41E050E09E01D4
:1006D0002A5F3F4F01E010E00E947C052E8127FF3A
:1006E00099C02F772E8330E021503040C9016AE055
:1006F00070E00E9429068C01C9016AE070E00E9446
:100700002906FB01EE0FFF1FE60FF71FE00FF11F99
:10071000E65DFD4F108100D000D000D0EDB7FEB7F0
:100720003196ADB7BEB712967C926E921197338216
:100730002282812F992787FD9095958384830E943B
:100740005906EDB7FEB736960FB6F894FEBF0FBE4A
:10075000EDBFC3010E94C5001A3209F050C0A40CBD
:10076000B51CD5011C92CE014796B2010E945006DD
:100770000097B1F484E50E94B80083E092E00E9403
:10078000C50084E50E94B80083E192E00E94C500A4
:100790001D86CC24DD24AA24BB249924939443C031
:1007A00084E50E94B80083E092E00E94C50084E5E1
:1007B0000E94B80088E192E00E94C50088E893E1B9
:1007C000E8EBF0E03197F1F70197D1F784E50E946B
:1007D000B80086EF91E00E94C50080E197E2E8EB67
:1007E000F0E03197F1F70197D1F781E0809336027D
:1007F0001D8611E0C12ED12CAA24BB2414C0B9E05F
:10080000AB16B10438F4F201EA0DFB1D1083089415
:10081000A11CB11C0894E11CF11C8C8190E0E8162D
:10082000F9060CF44BCF8F828FE1888788E6BE01F2
:10083000695F7F4F42E050E020E030E000E010E0F0
:100840000E947C05992009F40DCFEDCE0E94D200C4
:100850009924B2E08B2EA0C0809136028823E1F368
:10086000109236028E821D8289E6BE016A5F7F4F3A
:1008700041E050E09E012B5F3F4F01E010E00E94FD
:100880007C058D8180FF79C0E3E0EC831B8289E6E3
:10089000BE016C5F7F4F41E050E09E012D5F3F4FF6
:1008A0000E947C058B818F708B83CC24DD245FC0FC
:1008B000F4E0FA83198289E6BE016E5F7F4F41E062
:1008C00050E09E012F5F3F4F01E010E00E947C0549
:1008D000298127FF49C02F77298330E021503040FC
:1008E000C9016AE070E00E9429068C01C9016AE032
:1008F00070E00E942906FB01EE0FFF1FE60FF71FB5
:10090000E00FF11FE65DFD4F108100D000D000D058
:10091000EDB7FEB73196ADB7BEB712967C926E9228
:10092000119733822282812F992787FD9095958395
:1009300084830E945906EDB7FEB736960FB6F89439
:10094000FEBF0FBEEDBFC3010E94C500133221F4EC
:1009500071E0E72EF12C05C01A3231F462E0E62E88
:10096000F12C9924939409C00894C11CD11C8B814B
:1009700090E0C816D9060CF49BCF8F82FFE1F88770
:1009800088E6BE01695F7F4F42E050E020E030E042
:1009900000E010E00E947C05992009F45DCF42CE72
:1009A0000E941A0152E0C52ED12C992442E0842ED7
:1009B0009FC0809136028823E1F31092360289822B
:1009C0001A8289E6BE016F5F7F4F41E050E09E01D1
:1009D0002E5F3F4F01E010E00E947C058A8180FF7E
:1009E00078C083E08B831C8289E6BE016D5F7F4FF8
:1009F00041E050E09E012C5F3F4F0E947C058C81BE
:100A00008F708C83EE24FF245EC094E09D831E8251
:100A100089E6BE016B5F7F4F41E050E09E012A5F97
:100A20003F4F01E010E00E947C052E8127FF48C067
:100A30002F772E8330E021503040C9016AE070E00A
:100A40000E9429068C01C9016AE070E00E94290613
:100A5000FB01EE0FFF1FE60FF71FE00FF11FE65D32
:100A6000FD4F108100D000D000D0EDB7FEB7319619
:100A7000ADB7BEB712967C926E92119733822282E6
:100A8000812F992787FD9095958384830E9459062D
:100A9000EDB7FEB736960FB6F894FEBF0FBEEDBFAA
:100AA000C3010E94C500133219F4CC24DD2405C013
:100AB0001A3231F422E0C22ED12C9924939409C029
:100AC0000894E11CF11C8C8190E0E816F9060CF406
:100AD0009CCF8F82FFE1F88788E6BE01695F7F4F78
:100AE00042E050E020E030E000E010E00E947C05B1
:100AF000992009F45ECF97CDFF920F931F93F82EA4
:100B0000FB01D901000000000000000000004115B9
:100B10005105E9F184EA8093BC008091BC0087FF15
:100B2000FCCF9091B900987F983009F088C08F2D44
:100B30008E7F8093BB0084E88093BC008091BC00D2
:100B400087FFFCCF9091B900987F983121F09032C7
:100B500009F075C071C024E880818093BB002093A8
:100B6000BC008091BC0087FFFCCF9091B900987FBA
:100B700041505040983239F431964115510561F792
:100B800091E081E006C0903309F059C055C090E073
:100B900080E00115110509F44CC0882311F428E008
:100BA00001C020E184EA8093BC008091BC0087FFF3
:100BB000FCCF9091B900987F921709F040C081E076
:100BC000F82AF092BB0084E88093BC008091BC00BE
:100BD00087FFFCCF9091B900987F903419F098343A
:100BE00071F52AC00150104024EC10C02093BC00C5
:100BF0008091BC0087FFFCCF9091B900987F015095
:100C000010409035E1F48091BB008D9301151105E2
:100C100069F784E88093BC008091BC0087FFFCCF1B
:100C20009091B900987F983551F48091BB008C93D6
:100C300002C0992321F090E084E98093BC00892FC1
:100C40001F910F91FF9008951092B9008093B80002
:100C5000089597FB092E07260AD077FD04D00CD003
:100C600006D000201AF4709561957F4F0895F6F72D
:100C7000909581959F4F0895AA1BBB1B51E107C01A
:100C8000AA1FBB1FA617B70710F0A61BB70B881F1C
:100C9000991F5A95A9F780959095BC01CD010895AB
:100CA000FB01DC018D91019080190110D9F3990BA2
:100CB0000895AEE0B0E0EFE5F6E00C9408090D8988
:100CC0001E8986E08C831A8309838FEF9FE79E83BA
:100CD0008D839E01275E3F4FCE0101966F89788DEF
:100CE000A9010E947D062F813885020F131FF8018C
:100CF00010822E96E4E00C942409ABE0B0E0E3E827
:100D0000F6E00C94FA083C012B015A01FC01178211
:100D10001682838181FD03C06FEF7FEFC6C19AE029
:100D2000892E1E010894211C311CF3012381F2013C
:100D300023FD859123FF81912F01882309F4B2C1FE
:100D4000853239F423FD859123FF81912F0185326E
:100D500029F490E0B3010E947008E7CF982FFF2498
:100D6000EE249924FFE1FF15D0F09B3269F09C320C
:100D700028F4903259F0933291F40EC09D3249F02C
:100D8000903369F441E024C052E0F52A84E0F82A67
:100D900028C098E0F92A25C0E0E1FE2A22C0F7FC2D
:100DA00029C0892F80538A3070F4F6FE05C0989CC4
:100DB000902C1124980E15C0E89CE02C1124E80E0C
:100DC000F0E2FF2A0EC09E3229F4F6FC6BC140E42B
:100DD000F42A07C09C3619F450E8F52A02C0983668
:100DE00049F4F20123FD959123FF91912F0199235D
:100DF00009F0B8CF892F8554833018F080528330A2
:100E000038F444E050E0A40EB51E5FE359830FC0F0
:100E1000933631F0933779F0933509F056C020C0FE
:100E2000F5018081898342E050E0A40EB51E610186
:100E300001E010E012C0F501C080D180F6FC03C0D3
:100E40006FEF7FEF02C0692D70E042E050E0A40E2A
:100E5000B51EC6010E9465088C015FE7F52214C02B
:100E6000F501C080D180F6FC03C06FEF7FEF02C0B8
:100E7000692D70E042E050E0A40EB51EC6010E944C
:100E80005A088C0150E8F52AF3FE07C01AC080E228
:100E900090E0B3010E947008EA948E2D90E008174C
:100EA0001907A8F30EC0F601F7FC8591F7FE8191B2
:100EB0006F0190E0B3010E947008E110EA940150C4
:100EC00010400115110579F7EAC0943611F09936F2
:100ED00069F5F7FE08C0F501208131814281538117
:100EE00084E090E00AC0F501808191819C01442753
:100EF00037FD4095542F82E090E0A80EB91E9FE682
:100F0000F92257FF09C050954095309521953F4FE4
:100F10004F4F5F4FE0E8FE2ACA01B901A1012AE064
:100F200030E00E949C08D82ED21840C0953729F492
:100F30001F2D1F7E2AE030E01DC01F2D197F9F3618
:100F400061F0903720F4983509F0ACC00FC09037AD
:100F500039F0983709F0A6C004C028E030E00AC094
:100F6000106114FD146020E130E004C014FD16602F
:100F700020E132E017FF08C0F501608171818281B4
:100F8000938144E050E008C0F50180819181BC016B
:100F900080E090E042E050E0A40EB51EA1010E9466
:100FA0009C08D82ED2188FE7F82EF122F6FE0BC03F
:100FB0005EEFF522D91438F4F4FE07C0F2FC05C048
:100FC0008FEEF82202C01D2D01C0192DF4FE0DC0B8
:100FD000FE01ED0DF11D8081803319F499EEF922A7
:100FE00008C01F5FF2FE05C003C08F2D867809F090
:100FF0001F5F0F2DF3FC14C0F0FE0FC01E1510F084
:101000009D2C0BC09D2C9E0C911A1E2D06C080E2BB
:1010100090E0B3010E9470081F5F1E15C0F304C06A
:101020001E1510F4E11A01C0EE2404FF0FC080E386
:1010300090E0B3010E94700802FF1DC001FD03C0D3
:1010400088E790E00EC088E590E00BC0802F86789E
:1010500091F001FF02C08BE201C080E2F7FC8DE25B
:1010600090E0B3010E94700806C080E390E0B301F5
:101070000E9470089A94D914C0F3DA94F101ED0D2E
:10108000F11D808190E0B3010E947008DD20A9F776
:1010900006C080E290E0B3010E947008EA94EE205E
:1010A000C1F743CEF30166817781CB012B96E2E154
:1010B0000C941609FC010590615070400110D8F79E
:1010C000809590958E0F9F1F0895FC016150704090
:1010D00001900110D8F7809590958E0F9F1F08956D
:1010E0000F931F93CF93DF938C01EB018B8181FFD3
:1010F0001BC082FF0DC02E813F818C819D812817EE
:10110000390764F4E881F9810193F983E88306C023
:10111000E885F985802F0995892B31F48E819F818F
:1011200001969F838E8302C00FEF1FEFC801DF91EE
:10113000CF911F910F910895FA01AA27283051F1FC
:10114000203181F1E8946F936E7F6E5F7F4F8F4FF8
:101150009F4FAF4FB1E03ED0B4E03CD0670F781F57
:10116000891F9A1FA11D680F791F8A1F911DA11D3C
:101170006A0F711D811D911DA11D20D009F4689475
:101180003F912AE0269F11243019305D3193DEF61D
:10119000CF010895462F4770405D4193B3E00FD0D3
:1011A000C9F7F6CF462F4F70405D4A3318F0495DBE
:1011B00031FD4052419302D0A9F7EACFB4E0A695A1
:1011C0009795879577956795BA95C9F700976105C3
:1011D000710508959B01AC010A2E06945795479519
:1011E00037952795BA95C9F7620F731F841F951F0E
:1011F000A01D08952F923F924F925F926F927F921F
:101200008F929F92AF92BF92CF92DF92EF92FF9216
:101210000F931F93CF93DF93CDB7DEB7CA1BDB0BC2
:101220000FB6F894DEBF0FBECDBF09942A88398867
:1012300048885F846E847D848C849B84AA84B9846E
:10124000C884DF80EE80FD800C811B81AA81B9817A
:10125000CE0FD11D0FB6F894DEBF0FBECDBFED018E
:061260000895F894FFCF91
:10126600506F726368202050726F746563746F727A
:10127600002A2A2A20554E4C4F434B4544202A2A01
:101286002A0020205052455353202320464F5220F7
:101296004C4F434B00506F7263682050726F7465F9
:1012A60063746F72002A2A2A204C4F434B45442010
:1012B6002A2A2A00434F444520414E44202A2054DE
:1012C6004F20554E4C4F434B002A20494E50555403
:1012D600204D415354455220434F444520544F20FE
:1012E600434F4E542E202A00434F444520414E443E
:1012F600202A204F52202320544F20524554555225
:101306004E004E6F204D6F74696F6E004D6F74699D
:101316006F6E204465746563746564004B6579700F
:10132600616420496E6974204661696C004B657979
:1013360070616420496E69742053756363657373C5
:1013460000666C6167205452554500666C616720E3
:1013560046414C534500507265737365643A2000EC
:10136600256300202020202020202020202020204F
:1013760020200050415353004E4F205041535300FC
:101386003132333435000000000031323334353623
:061396003738392A30232C
:00000001FF
