:100000000C9434000C9451000C9451000C94510049
:100010000C94E3000C9451000C9451000C9451008A
:100020000C9451000C9451000C9451000C9451000C
:100030000C9451000C9451000C9451000C945100FC
:100040000C9451000C9451000C9451000C945100EC
:100050000C9451000C9451000C9451000C945100DC
:100060000C9451000C94510011241FBECFEFD8E026
:10007000DEBFCDBF11E0A0E0B1E0EEE2FDE002C0E6
:1000800005900D92AC3AB107D9F711E0ACEAB1E0B6
:1000900001C01D92AD3AB107E1F70E9482010C94B4
:1000A00095060C940000982F8091C00085FFFCCF2E
:1000B0009093C60008959093C5008093C400E1EC2E
:1000C000F0E080818860808380818061808386E029
:1000D0008093C200089588EE93E028EB30E0F901A8
:1000E0003197F1F70197D9F78091C00085FFFCCFD8
:1000F0008EEF8093C6008091C00085FFFCCF81E524
:100100008093C6000895982F8091C00085FFFCCF92
:100110008EEF8093C6008091C00085FFFCCF909346
:10012000C60008951F93182F85E40E9483008091D4
:10013000C00085FFFCCF1093C6001F910895FC01FD
:1001400007C08091C00085FFFCCF31969093C60018
:1001500090819923B1F708950F931F930E946B002C
:1001600082E00E94920080E091E00E949F0000E007
:1001700018E4C8010197F1F782E40E94920081E13E
:1001800091E00E949F00C8010197F1F784E50E9469
:10019000920082E291E00E949F001F910F910895CA
:1001A0008091C00085FFFCCF8EEF8093C6008091C8
:1001B000C00085FFFCCF81E58093C60086E69EE007
:1001C0000197F1F708951F920F920FB60F92112425
:1001D0008F9381E08093AC018F910F900FBE0F90B1
:1001E0001F901895DF92EF92FF920F931F93DF936A
:1001F000CF93CDB7DEB72A970FB6F894DEBF0FBE08
:10020000CDBF9EE1D92ED9828FEF8A8388E6BE01C9
:100210006F5F7F4F42E050E020E030E000E010E010
:100220000E94E0028DE18B838FE08C8383E0E82ED7
:10023000F12CEC0EFD1E88E6B70142E050E020E014
:1002400030E00E94E002DB8287E08C8388E6B70121
:1002500042E050E020E030E00E94E0028FE18D8338
:100260001E8288E6BE016B5F7F4F42E050E020E0D7
:1002700030E00E94E00281E08F8381E4888788E695
:10028000BE01695F7F4F42E050E020E030E00E9415
:10029000E00283E089871A8688E6BE01675F7F4FA8
:1002A00042E050E020E030E00E94E002882341F08C
:1002B00080E00E94920085E391E00E949F0014C0BC
:1002C00080E00E94920086E491E00E949F0080E01E
:1002D00098E40197F1F780E395E728EB30E0F90126
:1002E0003197F1F70197D9F72A960FB6F894DEBF48
:1002F0000FBECDBFCF91DF911F910F91FF90EF9077
:10030000DF9008952F923F924F925F926F927F926B
:100310008F929F92AF92BF92CF92DF92EF92FF9215
:100320000F931F93DF93CF93CDB7DEB768970FB6C8
:10033000F894DEBF0FBECDBF789480916C008860CA
:1003400080936C00809168008260809368008FE2E7
:1003500090E09093C5008093C4008091C1008860B4
:100360008093C1008091C10080618093C10086E0CC
:100370008093C2000E946B008DE10E9488030E945E
:10038000F20080E197E228EB30E0F9013197F1F7D4
:100390000197D9F780E40E9492008091AC018823F4
:1003A00019F08AE591E002C084E691E00E949F0086
:1003B0001D861E861F86188A1A8A198ADE015396A0
:1003C000E9E9F1E086E001900D928150E1F784E5E2
:1003D0000E9492008FE691E00E949F00EE24FF248D
:1003E00079E0872E912C8C0E9D1E69E7262E61E008
:1003F000362E5DE0A52EB12CAC0EBD1E43E1442E81
:10040000512C4C0E5D1E38EB632E712CD4C0109213
:10041000AC0182E089831A8289E6BE016F5F7F4F5B
:1004200041E050E09E012E5F3F4F01E010E00E944E
:10043000E0028A8180FFAFC083E08B831C8289E663
:10044000BE016D5F7F4F41E050E09E012C5F3F4F4A
:100450000E94E0028C818F708C83CC24DD2495C0B7
:1004600094E09D831E8289E6BE016B5F7F4F41E071
:1004700050E09E012A5F3F4F01E010E00E94E00241
:100480002E8127FF7FC02F772E8330E02150304010
:10049000C9016AE070E00E948D038C01C9016AE025
:1004A00070E00E948D03FB01EE0FFF1FE60FF71FA8
:1004B000E00FF11FE156FE4F108100D000D000D0B8
:1004C000EDB7FEB73196ADB7BEB712969C928E923D
:1004D000119733822282812F992787FD90959583EA
:1004E00084830E94BD03EDB7FEB736960FB6F8942D
:1004F000FEBF0FBEEDBFC4010E949F001A32B9F5C6
:10050000EA0CFB1CD7011C92C201B5010E94B40386
:10051000009769F484E50E9492008CE791E00E94C4
:100520009F0084E50E9492008CE891E01AC084E567
:100530000E9492008CE791E00E949F0084E50E9457
:10054000920081E991E00E949F0088E893E1F30125
:100550003197F1F70197D9F784E50E9492008FE671
:1005600091E00E949F001D86EE24FF240BC0B5E0A1
:10057000EB16F10438F4F501EE0DFF1D108308941D
:10058000E11CF11C0894C11CD11C8C8190E0C816A0
:10059000D9060CF465CFE2E0EF838FE1888788E627
:1005A000BE01695F7F4F42E050E020E030E000E0B4
:1005B00010E00E94E0028091AC018823E1F327CF94
:1005C000FF920F931F93F82EFB01D901000000004A
:1005D00000000000000041155105E9F184EA809314
:1005E000BC008091BC0087FFFCCF9091B900987F40
:1005F000983009F088C08F2D8E7F8093BB0084E8EF
:100600008093BC008091BC0087FFFCCF9091B90023
:10061000987F983121F0903209F075C071C024E8BC
:1006200080818093BB002093BC008091BC0087FF39
:10063000FCCF9091B900987F41505040983239F4E6
:1006400031964115510561F791E081E006C0903384
:1006500009F059C055C090E080E00115110509F47A
:100660004CC0882311F428E001C020E184EA809383
:10067000BC008091BC0087FFFCCF9091B900987FAF
:10068000921709F040C081E0F82AF092BB0084E89C
:100690008093BC008091BC0087FFFCCF9091B90093
:1006A000987F903419F0983471F52AC001501040A9
:1006B00024EC10C02093BC008091BC0087FFFCCFCD
:1006C0009091B900987F015010409035E1F48091ED
:1006D000BB008D930115110569F784E88093BC0078
:1006E0008091BC0087FFFCCF9091B900987F98352E
:1006F00051F48091BB008C9302C0992321F090E0CB
:1007000084E98093BC00892F1F910F91FF90089579
:100710001092B9008093B800089597FB092E072620
:100720000AD077FD04D00CD006D000201AF47095C2
:1007300061957F4F0895F6F7909581959F4F0895A5
:10074000AA1BBB1B51E107C0AA1FBB1FA617B707F7
:1007500010F0A61BB70B881F991F5A95A9F7809513
:100760009095BC01CD010895FB01DC018D910190B4
:1007700080190110D9F3990B0895AEE0B0E0E3ECD5
:10078000F3E00C946C060D891E8986E08C831A8335
:1007900009838FEF9FE79E838D839E01275E3F4FE6
:1007A000CE0101966F89788DA9010E94E1032F8106
:1007B0003885020F131FF80110822E96E4E00C9486
:1007C0008806ABE0B0E0E7EEF3E00C945E063C0197
:1007D0002B015A01FC0117821682838181FD03C01F
:1007E0006FEF7FEFC6C19AE0892E1E010894211C8D
:1007F000311CF3012381F20123FD859123FF8191B7
:100800002F01882309F4B2C1853239F423FD859183
:1008100023FF81912F01853229F490E0B3010E94DA
:10082000D405E7CF982FFF24EE249924FFE1FF158C
:10083000D0F09B3269F09C3228F4903259F0933218
:1008400091F40EC09D3249F0903369F441E024C028
:1008500052E0F52A84E0F82A28C098E0F92A25C059
:10086000E0E1FE2A22C0F7FC29C0892F80538A309C
:1008700070F4F6FE05C0989C902C1124980E15C0BB
:10088000E89CE02C1124E80EF0E2FF2A0EC09E3214
:1008900029F4F6FC6BC140E4F42A07C09C3619F435
:1008A00050E8F52A02C0983649F4F20123FD9591EB
:1008B00023FF91912F01992309F0B8CF892F8554F7
:1008C000833018F08052833038F444E050E0A40EB6
:1008D000B51E5FE359830FC0933631F0933779F03B
:1008E000933509F056C020C0F5018081898342E02C
:1008F00050E0A40EB51E610101E010E012C0F50148
:10090000C080D180F6FC03C06FEF7FEF02C0692D7D
:1009100070E042E050E0A40EB51EC6010E94C90579
:100920008C015FE7F52214C0F501C080D180F6FC90
:1009300003C06FEF7FEF02C0692D70E042E050E02E
:10094000A40EB51EC6010E94BE058C0150E8F52A12
:10095000F3FE07C01AC080E290E0B3010E94D40504
:10096000EA948E2D90E008171907A8F30EC0F6013F
:10097000F7FC8591F7FE81916F0190E0B3010E9431
:10098000D405E110EA94015010400115110579F7E2
:10099000EAC0943611F0993669F5F7FE08C0F50102
:1009A000208131814281538184E090E00AC0F501C9
:1009B000808191819C01442737FD4095542F82E02E
:1009C00090E0A80EB91E9FE6F92257FF09C0509586
:1009D0004095309521953F4F4F4F5F4FE0E8FE2AFD
:1009E000CA01B901A1012AE030E00E940006D82E18
:1009F000D21840C0953729F41F2D1F7E2AE030E021
:100A00001DC01F2D197F9F3661F0903720F4983557
:100A100009F0ACC00FC0903739F0983709F0A6C084
:100A200004C028E030E00AC0106114FD146020E129
:100A300030E004C014FD166020E132E017FF08C06A
:100A4000F501608171818281938144E050E008C0AA
:100A5000F50180819181BC0180E090E042E050E0AE
:100A6000A40EB51EA1010E940006D82ED2188FE751
:100A7000F82EF122F6FE0BC05EEFF522D91438F401
:100A8000F4FE07C0F2FC05C08FEEF82202C01D2D57
:100A900001C0192DF4FE0DC0FE01ED0DF11D808188
:100AA000803319F499EEF92208C01F5FF2FE05C0E9
:100AB00003C08F2D867809F01F5F0F2DF3FC14C043
:100AC000F0FE0FC01E1510F09D2C0BC09D2C9E0C2F
:100AD000911A1E2D06C080E290E0B3010E94D40559
:100AE0001F5F1E15C0F304C01E1510F4E11A01C0EB
:100AF000EE2404FF0FC080E390E0B3010E94D40510
:100B000002FF1DC001FD03C088E790E00EC088E52C
:100B100090E00BC0802F867891F001FF02C08BE23D
:100B200001C080E2F7FC8DE290E0B3010E94D405A1
:100B300006C080E390E0B3010E94D4059A94D914D2
:100B4000C0F3DA94F101ED0DF11D808190E0B30165
:100B50000E94D405DD20A9F706C080E290E0B30131
:100B60000E94D405EA94EE20C1F743CEF3016681DA
:100B70007781CB012B96E2E10C947A06FC0105907B
:100B8000615070400110D8F7809590958E0F9F1F8F
:100B90000895FC016150704001900110D8F78095D4
:100BA00090958E0F9F1F08950F931F93CF93DF9300
:100BB0008C01EB018B8181FF1BC082FF0DC02E8158
:100BC0003F818C819D812817390764F4E881F98180
:100BD0000193F983E88306C0E885F985802F09959C
:100BE000892B31F48E819F8101969F838E8302C071
:100BF0000FEF1FEFC801DF91CF911F910F91089563
:100C0000FA01AA27283051F1203181F1E8946F933D
:100C10006E7F6E5F7F4F8F4F9F4FAF4FB1E03ED0E3
:100C2000B4E03CD0670F781F891F9A1FA11D680F81
:100C3000791F8A1F911DA11D6A0F711D811D911DB4
:100C4000A11D20D009F468943F912AE0269F112429
:100C50003019305D3193DEF6CF010895462F47708D
:100C6000405D4193B3E00FD0C9F7F6CF462F4F70E8
:100C7000405D4A3318F0495D31FD4052419302D046
:100C8000A9F7EACFB4E0A6959795879577956795EC
:100C9000BA95C9F700976105710508959B01AC01EC
:100CA0000A2E06945795479537952795BA95C9F713
:100CB000620F731F841F951FA01D08952F923F92EE
:100CC0004F925F926F927F928F929F92AF92BF925C
:100CD000CF92DF92EF92FF920F931F93CF93DF9308
:100CE000CDB7DEB7CA1BDB0B0FB6F894DEBF0FBE65
:100CF000CDBF09942A88398848885F846E847D84B2
:100D00008C849B84AA84B984C884DF80EE80FD80B3
:100D10000C811B81AA81B981CE0FD11D0FB6F89429
:0E0D2000DEBF0FBECDBFED010895F894FFCFEA
:100D2E00506F726368202050726F746563746F72B7
:100D3E00002A2A2A20554E4C4F434B4544202A2A3E
:100D4E002A0020205052455353202320464F522034
:100D5E004C4F434B004B657970616420496E69744A
:100D6E00204661696C004B657970616420496E693B
:100D7E0074205375636365737300666C61672054EA
:100D8E0052554500666C61672046414C53450050F4
:100D9E007265737365643A2000256300202020205D
:100DAE00202020202020202020202000504153539E
:100DBE00004E4F2050415353003132333435003101
:0C0DCE0032333435363738392A302300F0
:00000001FF
