:100000000C9434000C9451000C9451000C94510049
:100010000C949C010C9451000C9451000C943402EB
:100020000C9451000C9451000C9451000C9451000C
:100030000C9451000C9479020C9401020C94510020
:100040000C9451000C9451000C9451000C945100EC
:100050000C9451000C9451000C9451000C945100DC
:100060000C9451000C94510011241FBECFEFD8E026
:10007000DEBFCDBF12E0A0E0B1E0EAE0FBE102C0EC
:1000800005900D92AE3AB107D9F712E0AEEAB2E0B0
:1000900001C01D92AB3BB107E1F70E9438040C94FC
:1000A000830D0C940000982F8091C00085FFFCCF39
:1000B0009093C60008959093C5008093C400E1EC2E
:1000C000F0E080818860808380818061808386E029
:1000D0008093C200089580E098E40197F1F7809141
:1000E000C00085FFFCCF8EEF8093C6008091C000DA
:1000F00085FFFCCF81E48093C60080E098E40197FF
:10010000F1F78091C00085FFFCCF8EEF8093C60091
:100110008091C00085FFFCCF81E58093C60080E020
:1001200098E40197F1F78091C00085FFFCCF8EEF36
:100130008093C6008091C00085FFFCCF83E580934B
:10014000C6008091C00085FFFCCF86E08093C6008A
:100150000895982F8091C00085FFFCCF8EEF80938B
:10016000C6008091C00085FFFCCF9093C600089523
:100170001F93182F85E40E94A9008091C00085FF7D
:10018000FCCF1093C6001F910895FC0107C0809119
:10019000C00085FFFCCF31969093C60090819923D3
:1001A000B1F708950F931F930E946B0082E00E94A5
:1001B000B80080E091E00E94C50000E018E4C801AA
:1001C0000197F1F782E40E94B80081E191E00E947A
:1001D000C500C8010197F1F784E10E94B80082E2EE
:1001E00091E00E94C500C8010197F1F784E50E94E3
:1001F000B80086E391E00E94C5001F910F91089519
:100200000F931F930E946B0082E00E94B8008AE463
:1002100091E00E94C50000E018E4C8010197F1F7E1
:1002200082E40E94B8008AE591E00E94C500C801FE
:100230000197F1F784E10E94B80089E691E00E94FD
:10024000C5001F910F9108950F931F930E946B009B
:1002500082E00E94B8008AE491E00E94C50000E0BC
:1002600018E4C8010197F1F784E20E94B8008EE714
:1002700091E00E94C500C8010197F1F782E40E9455
:10028000B80082E991E00E94C5001F910F91089586
:100290000F931F930E946B0082E00E94B8008AE4D3
:1002A00091E00E94C50000E018E4C8010197F1F751
:1002B00084E20E94B8008AEA91E00E94C500C80169
:1002C0000197F1F782E40E94B8008FEB91E00E9461
:1002D000C500C8010197F1F71F910F910895809112
:1002E000C00085FFFCCF8EEF8093C6008091C000D8
:1002F00085FFFCCF81E58093C60086E69EE00197EE
:10030000F1F7089580E00E94B80086ED91E00E9428
:10031000C50088E893E128EB30E0F9013197F1F767
:100320000197D9F74C9BFECF80E00E94B80080EE89
:1003300091E00E94C50008951F920F920FB60F9290
:1003400011248F9381E08093B1028F910F900FBEA3
:100350000F901F9018951092800085E08093810087
:100360008FEF9FEF9093850080938400EFE6F0E09D
:100370008081816080830895559A82E08093B000E7
:10038000E0E7F0E080818260808308951092B702F8
:100390001092B8021092B9021092BA02A0E0B0E036
:1003A000BC01CD0120ED37E040E050E00E943A0A68
:1003B00028EE33E040E050E00E946C0AC901DA0107
:1003C0008093B3029093B402A093B502B093B602A7
:1003D0008BEC8093B30082E08093B1007894089511
:1003E0001092B1005D980895529882E084BD85E036
:1003F00085BD87E487BDEEE6F0E080818260808382
:1004000008951F920F920FB60F9211242F938F937E
:100410009F934A9B1BC08091AE029091AF02805285
:100420009E4448F48091AE029091AF020A96909358
:10043000AF028093AE028091AE029091AF028052E3
:100440009E4450F081E08093B00206C01092AF024B
:100450001092AE021092B0029F918F912F910F9047
:100460000FBE0F901F9018951F920F920FB60F920C
:1004700011242F933F934F935F938F939F93AF9349
:10048000BF938091B7029091B802A091B902B09148
:10049000BA022091B3023091B4024091B50250915A
:1004A000B6020196A11DB11D8093B7029093B802C8
:1004B000A093B902B093BA020197A109B1098217BA
:1004C0009307A407B50728F48BB190E289278BB96D
:1004D00003C01092B1005D98BF91AF919F918F9131
:1004E0005F914F913F912F910F900FBE0F901F90F2
:1004F00018951F920F920FB60F9211248F939F930E
:1005000089B190E0929582958F7089279F70892795
:10051000982F91708091B2029817F1F49923E1F429
:1005200080E098E40197F1F78091C00085FFFCCF4F
:100530008EEF8093C6008091C00085FFFCCF83E5DD
:100540008093C6008091C00085FFFCCF81E080933E
:10055000C6008FEF9FEF1BC080E098E40197F1F792
:100560008091C00085FFFCCF8EEF8093C600809104
:10057000C00085FFFCCF83E58093C6008091C0005A
:1005800085FFFCCF86E08093C60088EB9BE09093CC
:100590008500809384009F918F910F900FBE0F90E4
:1005A0001F901895DF92EF92FF920F931F93DF93A6
:1005B000CF93CDB7DEB72A970FB6F894DEBF0FBE44
:1005C000CDBF9EE1D92ED9828FEF8A8388E6BE0106
:1005D0006F5F7F4F42E050E020E030E000E010E04D
:1005E0000E948D098DE18B838FE08C8383E0E82E60
:1005F000F12CEC0EFD1E88E6B70142E050E020E051
:1006000030E00E948D09DB8287E08C8388E6B701A9
:1006100042E050E020E030E00E948D098FE18D83C0
:100620001E8288E6BE016B5F7F4F42E050E020E013
:1006300030E00E948D0981E08F8381E4888788E61D
:10064000BE01695F7F4F42E050E020E030E00E9451
:100650008D0983E089871A8688E6BE01675F7F4F30
:1006600042E050E020E030E00E948D09882341F014
:1006700080E00E94B80080EF91E00E94C50014C0A5
:1006800080E00E94B80081E092E00E94C50080E016
:1006900098E40197F1F780E395E728EB30E0F90162
:1006A0003197F1F70197D9F72A960FB6F894DEBF84
:1006B0000FBECDBFCF91DF911F910F91FF90EF90B3
:1006C000DF9008952F923F924F925F926F927F92A8
:1006D0008F929F92AF92BF92CF92DF92EF92FF9252
:1006E0000F931F93DF93CF93CDB7DEB72C970FB641
:1006F000F894DEBF0FBECDBF5C013B014A01CC24A4
:10070000DD2459E0452E512C4C0E5D1E45E1242E72
:1007100042E0342EA8C01092B10282E089831A828E
:1007200089E6BE016F5F7F4F41E050E09E012E5F82
:100730003F4F01E010E00E948D098A8180FF83C055
:1007400093E09B831C8289E6BE016D5F7F4F41E091
:1007500050E09E012C5F3F4F0E948D098C818F706D
:100760008C83EE24FF2469C0A4E0AD831E8289E659
:10077000BE016B5F7F4F41E050E09E012A5F3F4F1B
:1007800001E010E00E948D092E8127FF53C02F77D2
:100790002E8330E021503040C9016AE070E00E94B1
:1007A000590A8C01C9016AE070E00E94590AFB01F4
:1007B000EE0FFF1FE60FF71FE00FF11FEE55FD4F85
:1007C000108100D000D000D0EDB7FEB73196ADB7A4
:1007D000BEB712965C924E92119733822282812F7D
:1007E000992787FD9095958384830E94AB0AEDB786
:1007F000FEB736960FB6F894FEBF0FBEEDBFC2012E
:100800000E94C500133221F4E1E0D301EC931BC038
:100810001A3241F4F501EC0DFD1D1082E1E0D40126
:10082000EC9308C0C114D10429F4D5011C9321E034
:10083000C22ED12C0894E11CF11C8C8190E0E816AA
:10084000F9060CF491CFB2E0BF83EFE1E88788E6C8
:10085000BE01695F7F4F42E050E020E030E000E001
:1008600010E00E948D098091B1028823E1F353CFFB
:100870002F923F924F925F926F927F928F929F92B0
:10088000AF92BF92CF92DF92EF92FF920F931F939E
:10089000DF93CF93CDB7DEB7AC970FB6F894DEBF3A
:1008A0000FBECDBF789480916C00886080936C00FF
:1008B0008091680082608093680054981092800054
:1008C00085E0809381008FEF9FEF90938500809368
:1008D000840080916F00816080936F00559A82E060
:1008E0008093B000809170008260809370000E94BD
:1008F000F4018FE290E09093C5008093C400809152
:10090000C10088608093C1008091C10080618093A4
:10091000C10086E08093C2000E946B008DE10E94BE
:10092000350A0E94D20280E197E228EB30E0F9011B
:100930003197F1F70197D9F70E94820180E197E2A0
:1009400028EB30E0F9013197F1F70197D9F780E40E
:100950000E94B8008091B102882319F088E192E0EA
:1009600002C082E292E00E94C5001F86188A198A9E
:100970001A8AFE01739686E0DF011D928A95E9F7D7
:10098000DE015996EEE8F2E086E001900D9281508A
:10099000E1F71F8E18A219A21AA2DE019396E8E9C8
:1009A000F2E086E001900D928150E1F719A61AA6B7
:1009B0001BA61CA6559A71E0A72EB12CCC24DD24D1
:1009C0006BE0462E512C4C0E5D1EB1E0AB16B1040F
:1009D00079F0E1E0AE16B10408F41CC1F2E0AF1604
:1009E000B10409F4FCC183E0A816B10471F73EC359
:1009F0000E94000184E50E94B8008DE292E00E940E
:100A0000C50051E0A52EB12C772442E0642E3FE0D2
:100A1000832E912C8C0E9D1E28EB222E312CF6C09D
:100A20008091B1028823E1F31092B1026F8218869F
:100A300089E6BE01695F7F4F41E050E09E01285F7B
:100A40003F4F01E010E00E948D09888580FFCFC0F4
:100A500083E08C831B8289E6BE016C5F7F4F41E09F
:100A600050E09E012D5F3F4F0E948D098B818F705A
:100A70008B83EE24FF24B5C094E09A83198289E623
:100A8000BE016E5F7F4F41E050E09E012F5F3F4F00
:100A900001E010E00E948D09298127FF9FC02F7778
:100AA000298330E021503040C9016AE070E00E94A3
:100AB000590A8C01C9016AE070E00E94590AFB01E1
:100AC000EE0FFF1FE60FF71FE00FF11FEE55FD4F72
:100AD000108100D000D000D0EDB7FEB73196ADB791
:100AE000BEB712965C924E92119785E192E0938385
:100AF0008283812F992787FD9095958384830E9417
:100B0000AB0AADB7BEB716960FB6F894BEBF0FBE10
:100B1000ADBFC2010E94C5001A3209F054C0C80C12
:100B2000D91CF6011082CE014996B4010E94A20A96
:100B30000097C1F484E50E94B80087E392E00E9428
:100B4000C50084E50E94B8008CED95E00E94C601C6
:100B500087E492E00E94C5001F8677247394AA243C
:100B6000BB242EC084E50E94B80087E392E00E9477
:100B7000C50084E50E94B8008CE492E00E94C500A4
:100B80008AEF90E00E94C60188E893E1F101319775
:100B9000F1F70197D9F784E50E94B8008DE292E061
:100BA0000E94C50080E197E2F1013197F1F70197CA
:100BB000D9F781E08093B1021F8681E0A82EB12C85
:100BC000CC24DD2414C0F9E0CF16D10438F4F401AC
:100BD000EC0DFD1D10830894C11CD11C0894E11C70
:100BE000F11C8B8190E0E816F9060CF445CF69867C
:100BF0008FE18A8788E6BE01675F7F4F42E050E061
:100C000020E030E000E010E00E948D09772009F438
:100C100007CFDBCE0E94D200992404E0202E312C95
:100C20002C0E3D1E14E0812EB9E06B2E712C6C0E43
:100C30007D1ED1C08091B0028823F1F082E00E9435
:100C4000B80084E592E00E94C50082E00E94B800EE
:100C500085E692E00E94C50004C084EF91E00E9406
:100C6000C6014A99FACF0E94D20084E50E94B800DA
:100C70008DE292E00E94C5008091B1028823D1F2FA
:100C80001092B10282E089831A8289E6BE016F5F09
:100C90007F4F41E050E09E012E5F3F4F01E010E0AA
:100CA0000E948D098A8180FF88C083E08B831C822B
:100CB00089E6BE016D5F7F4F41E050E091010E94E7
:100CC0008D098C818F708C83EE24FF2470C0888600
:100CD0001F8289E6BE01685F7F4F41E050E09E01C0
:100CE000295F3F4F01E010E00E948D092F8127FF0F
:100CF0005BC02F772F8330E021503040C9016AE07C
:100D000070E00E94590A8C01C9016AE070E00E94FB
:100D1000590AFB01EE0FFF1FE60FF71FE00FF11F4F
:100D2000EE55FD4F108100D000D000D0EDB7FEB7DA
:100D30003196ADB7BEB712965C924E92119785E18F
:100D400092E093838283812F992787FD90959583E5
:100D500084830E94AB0AADB7BEB716960FB6F8945F
:100D6000BEBF0FBEADBF133299F44A9905C006C08D
:100D700084EF91E00E94C6014A99FACF84E690E0A0
:100D80000E94C60199249394E1E0AE2EB12C15C0C7
:100D90001A3251F484E690E00E94C601992493949B
:100DA00072E0A72EB12C09C00894E11CF11C8C81C3
:100DB00090E0E816F9060CF48ACF82E08987BFE15B
:100DC000BA8788E6B30142E050E020E030E000E07E
:100DD00010E00E948D09992009F42CCFF6CD0E94D5
:100DE000240184E50E94B8008DE292E00E94C500D3
:100DF0001F8662E0A62EB12C9924CC24DD245FE06E
:100E0000652E712C6C0E7D1E44E0842E38EB232E53
:100E1000312C28C18091B0028823F1F082E00E9439
:100E2000B80084E592E00E94C50082E00E94B8000C
:100E300085E692E00E94C50004C084EF91E00E9424
:100E4000C6014A99FACF0E94240184E50E94B800A5
:100E50008DE292E00E94C5008091B1028823D1F218
:100E60001092B10282E08F83188689E6BE01695F25
:100E70007F4F41E050E09E01285F3F4F01E010E0CE
:100E80000E948D09888580FFDDC083E08C831B82F2
:100E900089E6BE016C5F7F4F41E050E09E012D5F0F
:100EA0003F4F0E948D098B818F708B83EE24FF242E
:100EB000C3C08A82198289E6BE016E5F7F4F41E01E
:100EC00050E09E012F5F3F4F01E010E00E948D092E
:100ED000298127FFAEC02F77298330E02150304091
:100EE000C9016AE070E00E94590A8C01C9016AE0F8
:100EF00070E00E94590AFB01EE0FFF1FE60FF71F7B
:100F0000E00FF11FEE55FD4F108100D000D000D052
:100F1000EDB7FEB73196ADB7BEB712965C924E9262
:100F2000119785E192E093838283812F992787FD32
:100F30009095958384830E94AB0AADB7BEB7169691
:100F40000FB6F894BEBF0FBEADBFC2010E94C50070
:100F5000133251F484E690E00E94C6011F86992462
:100F60009394AA24BB2426C01A3209F057C0C60C99
:100F7000D71CF6011082CE018396B3010E94A20A0B
:100F80000097D9F484E50E94B80087E392E00E94BC
:100F9000C50084E50E94B80087E492E00E94C50085
:100FA00084EF91E00E94C6011F869924939493E0F8
:100FB000A92EB12CCC24DD2445C084E50E94B800C4
:100FC00087E392E00E94C50084E50E94B8008CE4AB
:100FD00092E00E94C5008AEF90E00E94C60188E876
:100FE00093E1F1013197F1F70197D9F784E50E9478
:100FF000B8008DE292E00E94C50080E197E2F10125
:101000003197F1F70197D9F781E08093B1021F86FC
:1010100082E0A82EB12C99249394CCCFF9E0CF167E
:10102000D10438F4F301EC0DFD1D10830894C11CAC
:10103000D11C0894E11CF11C8B8190E0E816F906A4
:101040000CF437CF82E089878FE18A8788E6BE017A
:10105000675F7F4F42E050E020E030E000E010E0CA
:101060000E948D09992009F4D5CEAFCC0E94480189
:1010700084E50E94B8008DE292E00E94C5001F86C0
:101080009924CC24DD240FE0602E712C6C0E7D1E83
:1010900014E0812EB8EB2B2E312C3BC18091B00295
:1010A0008823F1F082E00E94B80084E592E00E947B
:1010B000C50082E00E94B80085E692E00E94C5006B
:1010C00004C084EF91E00E94C6014A99FACF0E94C1
:1010D000480184E50E94B8008DE292E00E94C500BC
:1010E0008091B1028823D1F21092B10282E089830B
:1010F0001A8289E6BE016F5F7F4F41E050E09E019A
:101100002E5F3F4F01E010E00E948D098A8180FF31
:10111000C3C083E08B831C8289E6BE016D5F7F4F75
:1011200041E050E09E012C5F3F4F0E948D098C8171
:101130008F708C83EE24FF24A9C088861F8289E6E5
:10114000BE01685F7F4F41E050E09E01295F3F4F45
:1011500001E010E00E948D092F8127FF94C02F77B6
:101160002F8330E021503040C9016AE070E00E94D6
:10117000590A8C01C9016AE070E00E94590AFB011A
:10118000EE0FFF1FE60FF71FE00FF11FEE55FD4FAB
:10119000108100D000D000D0EDB7FEB73196ADB7CA
:1011A000BEB712965C924E92119785E192E09383BE
:1011B0008283812F992787FD9095958384830E9450
:1011C000AB0AADB7BEB716960FB6F894BEBF0FBE4A
:1011D000ADBFC2010E94C5001332B9F484E50E947C
:1011E000B80084E792E00E94C50084E690E00E9487
:1011F000C60180E197E2F1013197F1F70197D9F744
:1012000099249394AA24BB2447C01A3289F5C60CAA
:10121000D71CF6011082DE015996F3018AE0019095
:101220000D928150E1F71F8684E50E94B80087E3A4
:1012300092E00E94C50084E50E94B80088EE93E029
:101240000E94C60184E892E00E94C500CE01499642
:101250000E94C50080E197E2F1013197F1F7019713
:10126000D9F799249394AA24BB24CC24DD2414C058
:10127000F9E0CF16D10438F4F301EC0DFD1D108315
:101280000894C11CD11C0894E11CF11C8C8190E0D5
:10129000E816F9060CF451CF83E08D831E8289E6AF
:1012A000BE016B5F7F4F41E050E09E012A5F3F4FE0
:1012B00001E010E00E948D098E818F708E83EE24F4
:1012C000FF2412C01F82888689E6BE01685F7F4FB7
:1012D00041E050E09E01295F3F4F01E010E00E9495
:1012E0008D090894E11CF11C8E8190E0E816F90646
:1012F0004CF382E089878FE18A8788E6BE01675FC9
:101300007F4F42E050E020E030E000E010E00E943B
:101310008D09992009F4C2CE58CBFF920F931F93E9
:10132000F82EFB01D90100000000000000000000C1
:1013300041155105E9F184EA8093BC008091BC001D
:1013400087FFFCCF9091B900987F983009F088C052
:101350008F2D8E7F8093BB0084E88093BC008091AA
:10136000BC0087FFFCCF9091B900987F983121F0A5
:10137000903209F075C071C024E880818093BB0071
:101380002093BC008091BC0087FFFCCF9091B900F6
:10139000987F41505040983239F4319641155105AB
:1013A00061F791E081E006C0903309F059C055C063
:1013B00090E080E00115110509F44CC0882311F478
:1013C00028E001C020E184EA8093BC008091BC0049
:1013D00087FFFCCF9091B900987F921709F040C029
:1013E00081E0F82AF092BB0084E88093BC008091F1
:1013F000BC0087FFFCCF9091B900987F903419F022
:10140000983471F52AC00150104024EC10C020938C
:10141000BC008091BC0087FFFCCF9091B900987F01
:10142000015010409035E1F48091BB008D9301157F
:10143000110569F784E88093BC008091BC0087FFA8
:10144000FCCF9091B900987F983551F48091BB0002
:101450008C9302C0992321F090E084E98093BC0032
:10146000892F1F910F91FF9008951092B9008093DA
:10147000B8000895629FD001739FF001829FE00D34
:10148000F11D649FE00DF11D929FF00D839FF00D03
:10149000749FF00D659FF00D9927729FB00DE11DAF
:1014A000F91F639FB00DE11DF91FBD01CF0111248C
:1014B000089597FB092E07260AD077FD04D02ED079
:1014C00006D000201AF4709561957F4F0895F6F7C5
:1014D000909581959F4F0895A1E21A2EAA1BBB1BE0
:1014E000FD010DC0AA1FBB1FEE1FFF1FA217B307F0
:1014F000E407F50720F0A21BB30BE40BF50B661F06
:10150000771F881F991F1A9469F7609570958095C9
:1015100090959B01AC01BD01CF010895AA1BBB1B97
:1015200051E107C0AA1FBB1FA617B70710F0A61BE3
:10153000B70B881F991F5A95A9F780959095BC0104
:10154000CD010895FB01DC018D91019080190110FE
:10155000D9F3990B0895AEE0B0E0E1EBFAE00C941A
:101560005A0D0D891E8986E08C831A8309838FEFBB
:101570009FE79E838D839E01275E3F4FCE0101969C
:101580006F89788DA9010E94CF0A2F813885020FBB
:10159000131FF80110822E96E4E00C94760DABE058
:1015A000B0E0E5EDFAE00C944C0D3C012B015A0142
:1015B000FC0117821682838181FD03C06FEF7FEFEC
:1015C000C6C19AE0892E1E010894211C311CF3012A
:1015D0002381F20123FD859123FF81912F0188232F
:1015E00009F4B2C1853239F423FD859123FF81913D
:1015F0002F01853229F490E0B3010E94C20CE7CF9D
:10160000982FFF24EE249924FFE1FF15D0F09B32A0
:1016100069F09C3228F4903259F0933291F40EC064
:101620009D3249F0903369F441E024C052E0F52A3C
:1016300084E0F82A28C098E0F92A25C0E0E1FE2AD3
:1016400022C0F7FC29C0892F80538A3070F4F6FE3F
:1016500005C0989C902C1124980E15C0E89CE02C95
:101660001124E80EF0E2FF2A0EC09E3229F4F6FCA7
:101670006BC140E4F42A07C09C3619F450E8F52AFF
:1016800002C0983649F4F20123FD959123FF919110
:101690002F01992309F0B8CF892F8554833018F092
:1016A0008052833038F444E050E0A40EB51E5FE36E
:1016B00059830FC0933631F0933779F0933509F0A1
:1016C00056C020C0F5018081898342E050E0A40E1D
:1016D000B51E610101E010E012C0F501C080D180AB
:1016E000F6FC03C06FEF7FEF02C0692D70E042E0AF
:1016F00050E0A40EB51EC6010E94B70C8C015FE736
:10170000F52214C0F501C080D180F6FC03C06FEF54
:101710007FEF02C0692D70E042E050E0A40EB51EDC
:10172000C6010E94AC0C8C0150E8F52AF3FE07C0FC
:101730001AC080E290E0B3010E94C20CEA948E2DA0
:1017400090E008171907A8F30EC0F601F7FC859181
:10175000F7FE81916F0190E0B3010E94C20CE1108D
:10176000EA94015010400115110579F7EAC094364A
:1017700011F0993669F5F7FE08C0F5012081318135
:101780004281538184E090E00AC0F501808191811B
:101790009C01442737FD4095542F82E090E0A80E2D
:1017A000B91E9FE6F92257FF09C050954095309524
:1017B00021953F4F4F4F5F4FE0E8FE2ACA01B90124
:1017C000A1012AE030E00E94EE0CD82ED21840C0D1
:1017D000953729F41F2D1F7E2AE030E01DC01F2DF4
:1017E000197F9F3661F0903720F4983509F0ACC02E
:1017F0000FC0903739F0983709F0A6C004C028E030
:1018000030E00AC0106114FD146020E130E004C033
:1018100014FD166020E132E017FF08C0F501608179
:1018200071818281938144E050E008C0F50180819C
:101830009181BC0180E090E042E050E0A40EB51E32
:10184000A1010E94EE0CD82ED2188FE7F82EF122BB
:10185000F6FE0BC05EEFF522D91438F4F4FE07C093
:10186000F2FC05C08FEEF82202C01D2D01C0192D1B
:10187000F4FE0DC0FE01ED0DF11D8081803319F4E1
:1018800099EEF92208C01F5FF2FE05C003C08F2D3C
:10189000867809F01F5F0F2DF3FC14C0F0FE0FC017
:1018A0001E1510F09D2C0BC09D2C9E0C911A1E2D08
:1018B00006C080E290E0B3010E94C20C1F5F1E15BB
:1018C000C0F304C01E1510F4E11A01C0EE2404FF99
:1018D0000FC080E390E0B3010E94C20C02FF1DC064
:1018E00001FD03C088E790E00EC088E590E00BC0E2
:1018F000802F867891F001FF02C08BE201C080E268
:10190000F7FC8DE290E0B3010E94C20C06C080E3B8
:1019100090E0B3010E94C20C9A94D914C0F3DA94F7
:10192000F101ED0DF11D808190E0B3010E94C20C28
:10193000DD20A9F706C080E290E0B3010E94C20C4E
:10194000EA94EE20C1F743CEF30166817781CB01A3
:101950002B96E2E10C94680DFC01059061507040FB
:101960000110D8F7809590958E0F9F1F0895FC0168
:101970006150704001900110D8F7809590958E0FBE
:101980009F1F08950F931F93CF93DF938C01EB015B
:101990008B8181FF1BC082FF0DC02E813F818C8116
:1019A0009D812817390764F4E881F9810193F9834F
:1019B000E88306C0E885F985802F0995892B31F4E5
:1019C0008E819F8101969F838E8302C00FEF1FEF50
:1019D000C801DF91CF911F910F910895FA01AA27B5
:1019E000283051F1203181F1E8946F936E7F6E5F62
:1019F0007F4F8F4F9F4FAF4FB1E03ED0B4E03CD010
:101A0000670F781F891F9A1FA11D680F791F8A1FF2
:101A1000911DA11D6A0F711D811D911DA11D20D059
:101A200009F468943F912AE0269F11243019305D13
:101A30003193DEF6CF010895462F4770405D419304
:101A4000B3E00FD0C9F7F6CF462F4F70405D4A3351
:101A500018F0495D31FD4052419302D0A9F7EACF19
:101A6000B4E0A6959795879577956795BA95C9F748
:101A700000976105710508959B01AC010A2E06943B
:101A80005795479537952795BA95C9F7620F731FF4
:101A9000841F951FA01D08952F923F924F925F9231
:101AA0006F927F928F929F92AF92BF92CF92DF926E
:101AB000EF92FF920F931F93CF93DF93CDB7DEB7D3
:101AC000CA1BDB0B0FB6F894DEBF0FBECDBF099467
:101AD0002A88398848885F846E847D848C849B84BE
:101AE000AA84B984C884DF80EE80FD800C811B81CC
:101AF000AA81B981CE0FD11D0FB6F894DEBF0FBEFB
:0A1B0000CDBFED010895F894FFCF6A
:101B0A00506F726368202050726F746563746F72CD
:101B1A00002A2A2A20554E4C4F434B4544202A2A54
:101B2A002A0020205052455353202320464F52204A
:101B3A004C4F434B200020205052455353202A201B
:101B4A00544F2052455345542000506F7263682009
:101B5A0050726F746563746F72002A2A2A204C4F80
:101B6A00434B4544202A2A2A00434F444520414EEC
:101B7A0044202A20544F20554E4C4F434B002A49AB
:101B8A004E505554204D415354455220434F4445DD
:101B9A002A00434F4445202B202A204F522023203D
:101BAA00544F2052455455524E0020494E505554D8
:101BBA00204E455720434F4445202B202A20002001
:101BCA002320544F2043414E43454C4C20544F2030
:101BDA005245534554004E6F204D6F74696F6E0025
:101BEA004D6F74696F6E2044657465637465640033
:101BFA004B657970616420496E6974204661696C2D
:101C0A00004B657970616420496E6974205375636D
:101C1A006365737300256300666C616720545255CF
:101C2A004500666C61672046414C53450050726519
:101C3A00737365643A200020202020202020202071
:101C4A002020202020200050415353004E4F205086
:101C5A004153530020202020202020202020202013
:101C6A002020202000202A434C4F534520444F4F28
:101C7A00522A200052455345542043414E43454C75
:101C8A004C4544004E455720434F44453A003132B3
:101C9A00333435000000000035343332310000009F
:0E1CAA0000003132333435363738392A3023D2
:00000001FF
